{
  "contractName": "AssetManager",
  "abi": [
    {
      "anonymous": false,
      "inputs": [
        {
          "indexed": true,
          "internalType": "address",
          "name": "owner",
          "type": "address"
        },
        {
          "indexed": false,
          "internalType": "string",
          "name": "imageId",
          "type": "string"
        },
        {
          "indexed": false,
          "internalType": "string",
          "name": "name",
          "type": "string"
        },
        {
          "indexed": false,
          "internalType": "uint256",
          "name": "creationTime",
          "type": "uint256"
        }
      ],
      "name": "AssetAdded",
      "type": "event"
    },
    {
      "anonymous": false,
      "inputs": [
        {
          "indexed": true,
          "internalType": "address",
          "name": "from",
          "type": "address"
        },
        {
          "indexed": true,
          "internalType": "address",
          "name": "to",
          "type": "address"
        },
        {
          "indexed": false,
          "internalType": "string",
          "name": "imageId",
          "type": "string"
        }
      ],
      "name": "AssetTransferred",
      "type": "event"
    },
    {
      "anonymous": false,
      "inputs": [
        {
          "indexed": false,
          "internalType": "string",
          "name": "imageId",
          "type": "string"
        },
        {
          "indexed": false,
          "internalType": "enum AssetManager.SaleStatus",
          "name": "status",
          "type": "uint8"
        }
      ],
      "name": "SaleStatusChanged",
      "type": "event"
    },
    {
      "inputs": [
        {
          "internalType": "string",
          "name": "_imageId",
          "type": "string"
        },
        {
          "internalType": "string",
          "name": "_name",
          "type": "string"
        }
      ],
      "name": "addAsset",
      "outputs": [],
      "stateMutability": "nonpayable",
      "type": "function"
    },
    {
      "inputs": [
        {
          "internalType": "string",
          "name": "_imageId",
          "type": "string"
        }
      ],
      "name": "setAssetSelling",
      "outputs": [],
      "stateMutability": "nonpayable",
      "type": "function"
    },
    {
      "inputs": [
        {
          "internalType": "string",
          "name": "_imageId",
          "type": "string"
        }
      ],
      "name": "setAssetNotSelling",
      "outputs": [],
      "stateMutability": "nonpayable",
      "type": "function"
    },
    {
      "inputs": [
        {
          "internalType": "string",
          "name": "_imageId",
          "type": "string"
        }
      ],
      "name": "getSaleStatus",
      "outputs": [
        {
          "internalType": "enum AssetManager.SaleStatus",
          "name": "",
          "type": "uint8"
        }
      ],
      "stateMutability": "view",
      "type": "function"
    },
    {
      "inputs": [
        {
          "internalType": "address",
          "name": "_user",
          "type": "address"
        }
      ],
      "name": "getAssets",
      "outputs": [
        {
          "internalType": "string[]",
          "name": "",
          "type": "string[]"
        }
      ],
      "stateMutability": "view",
      "type": "function"
    },
    {
      "inputs": [
        {
          "internalType": "string",
          "name": "_imageId",
          "type": "string"
        }
      ],
      "name": "getUser",
      "outputs": [
        {
          "internalType": "address",
          "name": "",
          "type": "address"
        }
      ],
      "stateMutability": "view",
      "type": "function"
    },
    {
      "inputs": [
        {
          "internalType": "string",
          "name": "_imageId",
          "type": "string"
        }
      ],
      "name": "getAssetName",
      "outputs": [
        {
          "internalType": "string",
          "name": "",
          "type": "string"
        }
      ],
      "stateMutability": "view",
      "type": "function"
    },
    {
      "inputs": [
        {
          "internalType": "string",
          "name": "_imageId",
          "type": "string"
        }
      ],
      "name": "getAssetCreationTime",
      "outputs": [
        {
          "internalType": "uint256",
          "name": "",
          "type": "uint256"
        }
      ],
      "stateMutability": "view",
      "type": "function"
    }
  ],
  "bytecode": "0x608060405234801561001057600080fd5b50611294806100206000396000f3fe608060405234801561001057600080fd5b50600436106100885760003560e01c80634f4486841161005b5780634f44868414610125578063553289d814610141578063742978da146101715780637c732f53146101a157610088565b80631ba4153d1461008d5780632c404ca5146100bd57806331feb671146100d957806337410dfa14610109575b600080fd5b6100a760048036038101906100a29190610969565b6101d1565b6040516100b49190610a31565b60405180910390f35b6100d760048036038101906100d29190610969565b610284565b005b6100f360048036038101906100ee9190610969565b61030b565b6040516101009190610a94565b60405180910390f35b610123600480360381019061011e9190610aaf565b610355565b005b61013f600480360381019061013a9190610969565b610610565b005b61015b60048036038101906101569190610969565b610696565b6040516101689190610b40565b60405180910390f35b61018b60048036038101906101869190610b87565b6106c0565b6040516101989190610cc0565b60405180910390f35b6101bb60048036038101906101b69190610969565b6107d8565b6040516101c89190610d59565b60405180910390f35b60606000826040516101e39190610db0565b908152602001604051809103902060000180546101ff90610df6565b80601f016020809104026020016040519081016040528092919081815260200182805461022b90610df6565b80156102785780601f1061024d57610100808354040283529160200191610278565b820191906000526020600020905b81548152906001019060200180831161025b57829003601f168201915b50505050509050919050565b60016000826040516102969190610db0565b908152602001604051809103902060020160146101000a81548160ff021916908360018111156102c9576102c8610ce2565b5b02179055507f67ea2c93d8c90ed30cc8598ec6ebd0a78beafd1d660fee89f598f7d97674c578816001604051610300929190610e27565b60405180910390a150565b6000808260405161031c9190610db0565b908152602001604051809103902060020160009054906101000a900473ffffffffffffffffffffffffffffffffffffffff169050919050565b6000825111610399576040517f08c379a000000000000000000000000000000000000000000000000000000000815260040161039090610ea3565b60405180910390fd5b60008151116103dd576040517f08c379a00000000000000000000000000000000000000000000000000000000081526004016103d490610f0f565b60405180910390fd5b600080836040516103ee9190610db0565b90815260200160405180910390206001015414610440576040517f08c379a000000000000000000000000000000000000000000000000000000000815260040161043790610f7b565b60405180910390fd5b600060405180608001604052808381526020014281526020013373ffffffffffffffffffffffffffffffffffffffff1681526020016000600181111561048957610488610ce2565b5b81525090508060008460405161049f9190610db0565b908152602001604051809103902060008201518160000190816104c29190611147565b506020820151816001015560408201518160020160006101000a81548173ffffffffffffffffffffffffffffffffffffffff021916908373ffffffffffffffffffffffffffffffffffffffff16021790555060608201518160020160146101000a81548160ff0219169083600181111561053f5761053e610ce2565b5b0217905550905050600160003373ffffffffffffffffffffffffffffffffffffffff1673ffffffffffffffffffffffffffffffffffffffff168152602001908152602001600020839080600181540180825580915050600190039060005260206000200160009091909190915090816105b89190611147565b503373ffffffffffffffffffffffffffffffffffffffff167f0cfe236a9632ec5d35ac0ea4f44b2d0e800e40ef84a2ac34ac2d152439b9937584844260405161060393929190611219565b60405180910390a2505050565b600080826040516106219190610db0565b908152602001604051809103902060020160146101000a81548160ff0219169083600181111561065457610653610ce2565b5b02179055507f67ea2c93d8c90ed30cc8598ec6ebd0a78beafd1d660fee89f598f7d97674c57881600060405161068b929190610e27565b60405180910390a150565b600080826040516106a79190610db0565b9081526020016040518091039020600101549050919050565b6060600160008373ffffffffffffffffffffffffffffffffffffffff1673ffffffffffffffffffffffffffffffffffffffff168152602001908152602001600020805480602002602001604051908101604052809291908181526020016000905b828210156107cd57838290600052602060002001805461074090610df6565b80601f016020809104026020016040519081016040528092919081815260200182805461076c90610df6565b80156107b95780601f1061078e576101008083540402835291602001916107b9565b820191906000526020600020905b81548152906001019060200180831161079c57829003601f168201915b505050505081526020019060010190610721565b505050509050919050565b600080826040516107e99190610db0565b908152602001604051809103902060020160149054906101000a900460ff169050919050565b6000604051905090565b600080fd5b600080fd5b600080fd5b600080fd5b6000601f19601f8301169050919050565b7f4e487b7100000000000000000000000000000000000000000000000000000000600052604160045260246000fd5b6108768261082d565b810181811067ffffffffffffffff821117156108955761089461083e565b5b80604052505050565b60006108a861080f565b90506108b4828261086d565b919050565b600067ffffffffffffffff8211156108d4576108d361083e565b5b6108dd8261082d565b9050602081019050919050565b82818337600083830152505050565b600061090c610907846108b9565b61089e565b90508281526020810184848401111561092857610927610828565b5b6109338482856108ea565b509392505050565b600082601f8301126109505761094f610823565b5b81356109608482602086016108f9565b91505092915050565b60006020828403121561097f5761097e610819565b5b600082013567ffffffffffffffff81111561099d5761099c61081e565b5b6109a98482850161093b565b91505092915050565b600081519050919050565b600082825260208201905092915050565b60005b838110156109ec5780820151818401526020810190506109d1565b60008484015250505050565b6000610a03826109b2565b610a0d81856109bd565b9350610a1d8185602086016109ce565b610a268161082d565b840191505092915050565b60006020820190508181036000830152610a4b81846109f8565b905092915050565b600073ffffffffffffffffffffffffffffffffffffffff82169050919050565b6000610a7e82610a53565b9050919050565b610a8e81610a73565b82525050565b6000602082019050610aa96000830184610a85565b92915050565b60008060408385031215610ac657610ac5610819565b5b600083013567ffffffffffffffff811115610ae457610ae361081e565b5b610af08582860161093b565b925050602083013567ffffffffffffffff811115610b1157610b1061081e565b5b610b1d8582860161093b565b9150509250929050565b6000819050919050565b610b3a81610b27565b82525050565b6000602082019050610b556000830184610b31565b92915050565b610b6481610a73565b8114610b6f57600080fd5b50565b600081359050610b8181610b5b565b92915050565b600060208284031215610b9d57610b9c610819565b5b6000610bab84828501610b72565b91505092915050565b600081519050919050565b600082825260208201905092915050565b6000819050602082019050919050565b600082825260208201905092915050565b6000610bfc826109b2565b610c068185610be0565b9350610c168185602086016109ce565b610c1f8161082d565b840191505092915050565b6000610c368383610bf1565b905092915050565b6000602082019050919050565b6000610c5682610bb4565b610c608185610bbf565b935083602082028501610c7285610bd0565b8060005b85811015610cae5784840389528151610c8f8582610c2a565b9450610c9a83610c3e565b925060208a01995050600181019050610c76565b50829750879550505050505092915050565b60006020820190508181036000830152610cda8184610c4b565b905092915050565b7f4e487b7100000000000000000000000000000000000000000000000000000000600052602160045260246000fd5b60028110610d2257610d21610ce2565b5b50565b6000819050610d3382610d11565b919050565b6000610d4382610d25565b9050919050565b610d5381610d38565b82525050565b6000602082019050610d6e6000830184610d4a565b92915050565b600081905092915050565b6000610d8a826109b2565b610d948185610d74565b9350610da48185602086016109ce565b80840191505092915050565b6000610dbc8284610d7f565b915081905092915050565b7f4e487b7100000000000000000000000000000000000000000000000000000000600052602260045260246000fd5b60006002820490506001821680610e0e57607f821691505b602082108103610e2157610e20610dc7565b5b50919050565b60006040820190508181036000830152610e4181856109f8565b9050610e506020830184610d4a565b9392505050565b7f496d6167652049442063616e6e6f7420626520656d7074790000000000000000600082015250565b6000610e8d6018836109bd565b9150610e9882610e57565b602082019050919050565b60006020820190508181036000830152610ebc81610e80565b9050919050565b7f4e616d652063616e6e6f7420626520656d707479000000000000000000000000600082015250565b6000610ef96014836109bd565b9150610f0482610ec3565b602082019050919050565b60006020820190508181036000830152610f2881610eec565b9050919050565b7f417373657420616c726561647920657869737473000000000000000000000000600082015250565b6000610f656014836109bd565b9150610f7082610f2f565b602082019050919050565b60006020820190508181036000830152610f9481610f58565b9050919050565b60008190508160005260206000209050919050565b60006020601f8301049050919050565b600082821b905092915050565b600060088302610ffd7fffffffffffffffffffffffffffffffffffffffffffffffffffffffffffffffff82610fc0565b6110078683610fc0565b95508019841693508086168417925050509392505050565b6000819050919050565b600061104461103f61103a84610b27565b61101f565b610b27565b9050919050565b6000819050919050565b61105e83611029565b61107261106a8261104b565b848454610fcd565b825550505050565b600090565b61108761107a565b611092818484611055565b505050565b5b818110156110b6576110ab60008261107f565b600181019050611098565b5050565b601f8211156110fb576110cc81610f9b565b6110d584610fb0565b810160208510156110e4578190505b6110f86110f085610fb0565b830182611097565b50505b505050565b600082821c905092915050565b600061111e60001984600802611100565b1980831691505092915050565b6000611137838361110d565b9150826002028217905092915050565b611150826109b2565b67ffffffffffffffff8111156111695761116861083e565b5b6111738254610df6565b61117e8282856110ba565b600060209050601f8311600181146111b1576000841561119f578287015190505b6111a9858261112b565b865550611211565b601f1984166111bf86610f9b565b60005b828110156111e7578489015182556001820191506020850194506020810190506111c2565b868310156112045784890151611200601f89168261110d565b8355505b6001600288020188555050505b505050505050565b6000606082019050818103600083015261123381866109f8565b9050818103602083015261124781856109f8565b90506112566040830184610b31565b94935050505056fea26469706673582212204725ceb8be764da8aa0c99b83ceb59bb12d7baf1c8bdf43fefeea82fd1d50d1e64736f6c63430008110033",
  "immutableReferences": {},
  "source": "// SPDX-License-Identifier: MIT\npragma solidity ^0.8.17;\n\ncontract AssetManager {\n    // \n    enum SaleStatus { NotSelling, Selling }\n\n    // Asset\n    struct Asset {\n        string name;\n        uint256 creationTime;\n        address owner;\n        SaleStatus status;\n    }\n\n    // imageIdAsset\n    mapping(string => Asset) private assets;\n\n    // \n    mapping(address => string[]) private userAssets;\n\n    // \n    event AssetAdded(address indexed owner, string imageId, string name, uint256 creationTime);\n    // \n    event AssetTransferred(address indexed from, address indexed to, string imageId);\n    // \n    event SaleStatusChanged(string imageId, SaleStatus status);\n\n    // \n    function addAsset(string memory _imageId, string memory _name) public {\n        require(bytes(_imageId).length > 0, \"Image ID cannot be empty\");\n        require(bytes(_name).length > 0, \"Name cannot be empty\");\n        require(assets[_imageId].creationTime == 0, \"Asset already exists\");\n\n        Asset memory newAsset = Asset({\n            name: _name,\n            creationTime: block.timestamp,\n            owner: msg.sender,\n            status: SaleStatus.NotSelling\n        });\n\n        assets[_imageId] = newAsset;\n        userAssets[msg.sender].push(_imageId);\n\n        emit AssetAdded(msg.sender, _imageId, _name, block.timestamp);\n    }\n\n    // \n    function changeAssetOwner(string memory _imageId, address _oldOwner, address _newOwner) internal {\n        require(_newOwner != address(0), \"New owner cannot be zero address\");\n        require(assets[_imageId].owner == _oldOwner, \"The old owner is not the owner of the asset\");\n\n        // \n        string[] storage ownedAssets = userAssets[_oldOwner];\n        for (uint i = 0; i < ownedAssets.length; i++) {\n            if (keccak256(bytes(ownedAssets[i])) == keccak256(bytes(_imageId))) {\n                ownedAssets[i] = ownedAssets[ownedAssets.length - 1];\n                ownedAssets.pop();\n                break;\n            }\n        }\n\n        // \n        userAssets[_newOwner].push(_imageId);\n\n        // \n        assets[_imageId].owner = _newOwner;\n\n        emit AssetTransferred(_oldOwner, _newOwner, _imageId);\n    }\n\n    // Selling\n    function setAssetSelling(string memory _imageId) public {\n        assets[_imageId].status = SaleStatus.Selling;\n\n        emit SaleStatusChanged(_imageId, SaleStatus.Selling);\n    }\n\n    // NotSelling\n    function setAssetNotSelling(string memory _imageId) public {\n        assets[_imageId].status = SaleStatus.NotSelling;\n\n        emit SaleStatusChanged(_imageId, SaleStatus.NotSelling);\n    }\n\n    // \n    function getSaleStatus(string memory _imageId) public view returns (SaleStatus) {\n        return assets[_imageId].status;\n    }\n\n    // \n    function getAssets(address _user) public view returns (string[] memory) {\n        return userAssets[_user];\n    }\n\n    // \n    function getUser(string memory _imageId) public view returns (address) {\n        return assets[_imageId].owner;\n    }\n\n    // \n    function getAssetName(string memory _imageId) public view returns (string memory) {\n        return assets[_imageId].name;\n    }\n\n    // \n    function getAssetCreationTime(string memory _imageId) public view returns (uint256) {\n        return assets[_imageId].creationTime;\n    }\n}\n",
  "sourcePath": "D:\\codes\\hku_Final\\ebay-truffle-auction\\contracts\\AssetManager.sol",
  "compiler": {
    "name": "solc",
    "version": "0.8.17+commit.8df45f5f.Emscripten.clang"
  },
  "schemaVersion": "3.4.11",
  "updatedAt": "2024-07-11T20:15:38.853Z",
  "devdoc": {
    "kind": "dev",
    "methods": {},
    "version": 1
  },
  "userdoc": {
    "kind": "user",
    "methods": {},
    "version": 1
  }
}