{
  "contractName": "AssetManager",
  "abi": [
    {
      "anonymous": false,
      "inputs": [
        {
          "indexed": true,
          "internalType": "address",
          "name": "owner",
          "type": "address"
        },
        {
          "indexed": false,
          "internalType": "string",
          "name": "imageId",
          "type": "string"
        },
        {
          "indexed": false,
          "internalType": "string",
          "name": "name",
          "type": "string"
        },
        {
          "indexed": false,
          "internalType": "uint256",
          "name": "creationTime",
          "type": "uint256"
        }
      ],
      "name": "AssetAdded",
      "type": "event"
    },
    {
      "anonymous": false,
      "inputs": [
        {
          "indexed": true,
          "internalType": "address",
          "name": "from",
          "type": "address"
        },
        {
          "indexed": true,
          "internalType": "address",
          "name": "to",
          "type": "address"
        },
        {
          "indexed": false,
          "internalType": "string",
          "name": "imageId",
          "type": "string"
        }
      ],
      "name": "AssetTransferred",
      "type": "event"
    },
    {
      "inputs": [
        {
          "internalType": "string",
          "name": "_imageId",
          "type": "string"
        },
        {
          "internalType": "string",
          "name": "_name",
          "type": "string"
        }
      ],
      "name": "addAsset",
      "outputs": [],
      "stateMutability": "nonpayable",
      "type": "function"
    },
    {
      "inputs": [
        {
          "internalType": "address",
          "name": "_user",
          "type": "address"
        }
      ],
      "name": "getAssets",
      "outputs": [
        {
          "internalType": "string[]",
          "name": "",
          "type": "string[]"
        }
      ],
      "stateMutability": "view",
      "type": "function"
    },
    {
      "inputs": [
        {
          "internalType": "string",
          "name": "_imageId",
          "type": "string"
        }
      ],
      "name": "getUser",
      "outputs": [
        {
          "internalType": "address",
          "name": "",
          "type": "address"
        }
      ],
      "stateMutability": "view",
      "type": "function"
    },
    {
      "inputs": [
        {
          "internalType": "string",
          "name": "_imageId",
          "type": "string"
        }
      ],
      "name": "getAssetName",
      "outputs": [
        {
          "internalType": "string",
          "name": "",
          "type": "string"
        }
      ],
      "stateMutability": "view",
      "type": "function"
    },
    {
      "inputs": [
        {
          "internalType": "string",
          "name": "_imageId",
          "type": "string"
        }
      ],
      "name": "getAssetCreationTime",
      "outputs": [
        {
          "internalType": "uint256",
          "name": "",
          "type": "uint256"
        }
      ],
      "stateMutability": "view",
      "type": "function"
    }
  ],
  "bytecode": "0x608060405234801561001057600080fd5b50610fac806100206000396000f3fe608060405234801561001057600080fd5b50600436106100575760003560e01c80631ba4153d1461005c57806331feb6711461008c57806337410dfa146100bc578063553289d8146100d8578063742978da14610108575b600080fd5b61007660048036038101906100719190610743565b610138565b604051610083919061080b565b60405180910390f35b6100a660048036038101906100a19190610743565b6101eb565b6040516100b3919061086e565b60405180910390f35b6100d660048036038101906100d19190610889565b610235565b005b6100f260048036038101906100ed9190610743565b6104a7565b6040516100ff919061091a565b60405180910390f35b610122600480360381019061011d9190610961565b6104d1565b60405161012f9190610a9a565b60405180910390f35b606060008260405161014a9190610af8565b9081526020016040518091039020600001805461016690610b3e565b80601f016020809104026020016040519081016040528092919081815260200182805461019290610b3e565b80156101df5780601f106101b4576101008083540402835291602001916101df565b820191906000526020600020905b8154815290600101906020018083116101c257829003601f168201915b50505050509050919050565b600080826040516101fc9190610af8565b908152602001604051809103902060020160009054906101000a900473ffffffffffffffffffffffffffffffffffffffff169050919050565b6000825111610279576040517f08c379a000000000000000000000000000000000000000000000000000000000815260040161027090610bbb565b60405180910390fd5b60008151116102bd576040517f08c379a00000000000000000000000000000000000000000000000000000000081526004016102b490610c27565b60405180910390fd5b600080836040516102ce9190610af8565b90815260200160405180910390206001015414610320576040517f08c379a000000000000000000000000000000000000000000000000000000000815260040161031790610c93565b60405180910390fd5b600060405180606001604052808381526020014281526020013373ffffffffffffffffffffffffffffffffffffffff168152509050806000846040516103669190610af8565b908152602001604051809103902060008201518160000190816103899190610e5f565b506020820151816001015560408201518160020160006101000a81548173ffffffffffffffffffffffffffffffffffffffff021916908373ffffffffffffffffffffffffffffffffffffffff160217905550905050600160003373ffffffffffffffffffffffffffffffffffffffff1673ffffffffffffffffffffffffffffffffffffffff1681526020019081526020016000208390806001815401808255809150506001900390600052602060002001600090919091909150908161044f9190610e5f565b503373ffffffffffffffffffffffffffffffffffffffff167f0cfe236a9632ec5d35ac0ea4f44b2d0e800e40ef84a2ac34ac2d152439b9937584844260405161049a93929190610f31565b60405180910390a2505050565b600080826040516104b89190610af8565b9081526020016040518091039020600101549050919050565b6060600160008373ffffffffffffffffffffffffffffffffffffffff1673ffffffffffffffffffffffffffffffffffffffff168152602001908152602001600020805480602002602001604051908101604052809291908181526020016000905b828210156105de57838290600052602060002001805461055190610b3e565b80601f016020809104026020016040519081016040528092919081815260200182805461057d90610b3e565b80156105ca5780601f1061059f576101008083540402835291602001916105ca565b820191906000526020600020905b8154815290600101906020018083116105ad57829003601f168201915b505050505081526020019060010190610532565b505050509050919050565b6000604051905090565b600080fd5b600080fd5b600080fd5b600080fd5b6000601f19601f8301169050919050565b7f4e487b7100000000000000000000000000000000000000000000000000000000600052604160045260246000fd5b61065082610607565b810181811067ffffffffffffffff8211171561066f5761066e610618565b5b80604052505050565b60006106826105e9565b905061068e8282610647565b919050565b600067ffffffffffffffff8211156106ae576106ad610618565b5b6106b782610607565b9050602081019050919050565b82818337600083830152505050565b60006106e66106e184610693565b610678565b90508281526020810184848401111561070257610701610602565b5b61070d8482856106c4565b509392505050565b600082601f83011261072a576107296105fd565b5b813561073a8482602086016106d3565b91505092915050565b600060208284031215610759576107586105f3565b5b600082013567ffffffffffffffff811115610777576107766105f8565b5b61078384828501610715565b91505092915050565b600081519050919050565b600082825260208201905092915050565b60005b838110156107c65780820151818401526020810190506107ab565b60008484015250505050565b60006107dd8261078c565b6107e78185610797565b93506107f78185602086016107a8565b61080081610607565b840191505092915050565b6000602082019050818103600083015261082581846107d2565b905092915050565b600073ffffffffffffffffffffffffffffffffffffffff82169050919050565b60006108588261082d565b9050919050565b6108688161084d565b82525050565b6000602082019050610883600083018461085f565b92915050565b600080604083850312156108a05761089f6105f3565b5b600083013567ffffffffffffffff8111156108be576108bd6105f8565b5b6108ca85828601610715565b925050602083013567ffffffffffffffff8111156108eb576108ea6105f8565b5b6108f785828601610715565b9150509250929050565b6000819050919050565b61091481610901565b82525050565b600060208201905061092f600083018461090b565b92915050565b61093e8161084d565b811461094957600080fd5b50565b60008135905061095b81610935565b92915050565b600060208284031215610977576109766105f3565b5b60006109858482850161094c565b91505092915050565b600081519050919050565b600082825260208201905092915050565b6000819050602082019050919050565b600082825260208201905092915050565b60006109d68261078c565b6109e081856109ba565b93506109f08185602086016107a8565b6109f981610607565b840191505092915050565b6000610a1083836109cb565b905092915050565b6000602082019050919050565b6000610a308261098e565b610a3a8185610999565b935083602082028501610a4c856109aa565b8060005b85811015610a885784840389528151610a698582610a04565b9450610a7483610a18565b925060208a01995050600181019050610a50565b50829750879550505050505092915050565b60006020820190508181036000830152610ab48184610a25565b905092915050565b600081905092915050565b6000610ad28261078c565b610adc8185610abc565b9350610aec8185602086016107a8565b80840191505092915050565b6000610b048284610ac7565b915081905092915050565b7f4e487b7100000000000000000000000000000000000000000000000000000000600052602260045260246000fd5b60006002820490506001821680610b5657607f821691505b602082108103610b6957610b68610b0f565b5b50919050565b7f496d6167652049442063616e6e6f7420626520656d7074790000000000000000600082015250565b6000610ba5601883610797565b9150610bb082610b6f565b602082019050919050565b60006020820190508181036000830152610bd481610b98565b9050919050565b7f4e616d652063616e6e6f7420626520656d707479000000000000000000000000600082015250565b6000610c11601483610797565b9150610c1c82610bdb565b602082019050919050565b60006020820190508181036000830152610c4081610c04565b9050919050565b7f417373657420616c726561647920657869737473000000000000000000000000600082015250565b6000610c7d601483610797565b9150610c8882610c47565b602082019050919050565b60006020820190508181036000830152610cac81610c70565b9050919050565b60008190508160005260206000209050919050565b60006020601f8301049050919050565b600082821b905092915050565b600060088302610d157fffffffffffffffffffffffffffffffffffffffffffffffffffffffffffffffff82610cd8565b610d1f8683610cd8565b95508019841693508086168417925050509392505050565b6000819050919050565b6000610d5c610d57610d5284610901565b610d37565b610901565b9050919050565b6000819050919050565b610d7683610d41565b610d8a610d8282610d63565b848454610ce5565b825550505050565b600090565b610d9f610d92565b610daa818484610d6d565b505050565b5b81811015610dce57610dc3600082610d97565b600181019050610db0565b5050565b601f821115610e1357610de481610cb3565b610ded84610cc8565b81016020851015610dfc578190505b610e10610e0885610cc8565b830182610daf565b50505b505050565b600082821c905092915050565b6000610e3660001984600802610e18565b1980831691505092915050565b6000610e4f8383610e25565b9150826002028217905092915050565b610e688261078c565b67ffffffffffffffff811115610e8157610e80610618565b5b610e8b8254610b3e565b610e96828285610dd2565b600060209050601f831160018114610ec95760008415610eb7578287015190505b610ec18582610e43565b865550610f29565b601f198416610ed786610cb3565b60005b82811015610eff57848901518255600182019150602085019450602081019050610eda565b86831015610f1c5784890151610f18601f891682610e25565b8355505b6001600288020188555050505b505050505050565b60006060820190508181036000830152610f4b81866107d2565b90508181036020830152610f5f81856107d2565b9050610f6e604083018461090b565b94935050505056fea26469706673582212201f039cf332b4016016e18a1978923f70fbf79079cfaf66fc1ec3e59a3e3915e064736f6c63430008110033",
  "immutableReferences": {},
  "source": "// SPDX-License-Identifier: MIT\npragma solidity ^0.8.17;\n\ncontract AssetManager {\n    // Asset\n    struct Asset {\n        string name;\n        uint256 creationTime;\n        address owner;\n    }\n\n    // imageIdAsset\n    mapping(string => Asset) private assets;\n\n    // \n    mapping(address => string[]) private userAssets;\n\n    // \n    event AssetAdded(address indexed owner, string imageId, string name, uint256 creationTime);\n    // \n    event AssetTransferred(address indexed from, address indexed to, string imageId);\n\n    // \n    function addAsset(string memory _imageId, string memory _name) public {\n        require(bytes(_imageId).length > 0, \"Image ID cannot be empty\");\n        require(bytes(_name).length > 0, \"Name cannot be empty\");\n        require(assets[_imageId].creationTime == 0, \"Asset already exists\");\n\n        Asset memory newAsset = Asset({\n            name: _name,\n            creationTime: block.timestamp,\n            owner: msg.sender\n        });\n\n        assets[_imageId] = newAsset;\n        userAssets[msg.sender].push(_imageId);\n\n        emit AssetAdded(msg.sender, _imageId, _name, block.timestamp);\n    }\n\n    // \n    function changeAssetOwner(string memory _imageId, address _oldOwner, address _newOwner) internal {\n        require(_newOwner != address(0), \"New owner cannot be zero address\");\n        require(assets[_imageId].owner == _oldOwner, \"The old owner is not the owner of the asset\");\n\n        // \n        string[] storage ownedAssets = userAssets[_oldOwner];\n        for (uint i = 0; i < ownedAssets.length; i++) {\n            if (keccak256(bytes(ownedAssets[i])) == keccak256(bytes(_imageId))) {\n                ownedAssets[i] = ownedAssets[ownedAssets.length - 1];\n                ownedAssets.pop();\n                break;\n            }\n        }\n\n        // \n        userAssets[_newOwner].push(_imageId);\n\n        // \n        assets[_imageId].owner = _newOwner;\n\n        emit AssetTransferred(_oldOwner, _newOwner, _imageId);\n    }\n\n    // \n    function getAssets(address _user) public view returns (string[] memory) {\n        return userAssets[_user];\n    }\n\n    // \n    function getUser(string memory _imageId) public view returns (address) {\n        return assets[_imageId].owner;\n    }\n\n    // \n    function getAssetName(string memory _imageId) public view returns (string memory) {\n        return assets[_imageId].name;\n    }\n\n    // \n    function getAssetCreationTime(string memory _imageId) public view returns (uint256) {\n        return assets[_imageId].creationTime;\n    }\n}",
  "sourcePath": "D:\\codes\\hku_Final\\ebay-truffle-auction\\contracts\\AssetManager.sol",
  "compiler": {
    "name": "solc",
    "version": "0.8.17+commit.8df45f5f.Emscripten.clang"
  },
  "schemaVersion": "3.4.11",
  "updatedAt": "2024-07-08T03:37:01.054Z",
  "devdoc": {
    "kind": "dev",
    "methods": {},
    "version": 1
  },
  "userdoc": {
    "kind": "user",
    "methods": {},
    "version": 1
  }
}