{
  "contractName": "EcommerceStore",
  "abi": [
    {
      "anonymous": false,
      "inputs": [
        {
          "indexed": true,
          "internalType": "address",
          "name": "owner",
          "type": "address"
        },
        {
          "indexed": false,
          "internalType": "string",
          "name": "imageId",
          "type": "string"
        },
        {
          "indexed": false,
          "internalType": "string",
          "name": "name",
          "type": "string"
        },
        {
          "indexed": false,
          "internalType": "uint256",
          "name": "creationTime",
          "type": "uint256"
        }
      ],
      "name": "AssetAdded",
      "type": "event"
    },
    {
      "anonymous": false,
      "inputs": [
        {
          "indexed": true,
          "internalType": "address",
          "name": "from",
          "type": "address"
        },
        {
          "indexed": true,
          "internalType": "address",
          "name": "to",
          "type": "address"
        },
        {
          "indexed": false,
          "internalType": "string",
          "name": "imageId",
          "type": "string"
        }
      ],
      "name": "AssetTransferred",
      "type": "event"
    },
    {
      "anonymous": false,
      "inputs": [
        {
          "indexed": false,
          "internalType": "uint256",
          "name": "_productId",
          "type": "uint256"
        },
        {
          "indexed": false,
          "internalType": "string",
          "name": "_name",
          "type": "string"
        },
        {
          "indexed": false,
          "internalType": "string",
          "name": "_category",
          "type": "string"
        },
        {
          "indexed": false,
          "internalType": "string",
          "name": "_imageLink",
          "type": "string"
        },
        {
          "indexed": false,
          "internalType": "string",
          "name": "_descLink",
          "type": "string"
        },
        {
          "indexed": false,
          "internalType": "uint256",
          "name": "_auctionStartTime",
          "type": "uint256"
        },
        {
          "indexed": false,
          "internalType": "uint256",
          "name": "_auctionEndTime",
          "type": "uint256"
        },
        {
          "indexed": false,
          "internalType": "uint256",
          "name": "_startPrice",
          "type": "uint256"
        }
      ],
      "name": "NewProduct",
      "type": "event"
    },
    {
      "inputs": [
        {
          "internalType": "string",
          "name": "_imageId",
          "type": "string"
        },
        {
          "internalType": "string",
          "name": "_name",
          "type": "string"
        }
      ],
      "name": "addAsset",
      "outputs": [],
      "stateMutability": "nonpayable",
      "type": "function"
    },
    {
      "inputs": [
        {
          "internalType": "string",
          "name": "_imageId",
          "type": "string"
        }
      ],
      "name": "getAssetCreationTime",
      "outputs": [
        {
          "internalType": "uint256",
          "name": "",
          "type": "uint256"
        }
      ],
      "stateMutability": "view",
      "type": "function",
      "constant": true
    },
    {
      "inputs": [
        {
          "internalType": "string",
          "name": "_imageId",
          "type": "string"
        }
      ],
      "name": "getAssetName",
      "outputs": [
        {
          "internalType": "string",
          "name": "",
          "type": "string"
        }
      ],
      "stateMutability": "view",
      "type": "function",
      "constant": true
    },
    {
      "inputs": [
        {
          "internalType": "address",
          "name": "_user",
          "type": "address"
        }
      ],
      "name": "getAssets",
      "outputs": [
        {
          "internalType": "string[]",
          "name": "",
          "type": "string[]"
        }
      ],
      "stateMutability": "view",
      "type": "function",
      "constant": true
    },
    {
      "inputs": [
        {
          "internalType": "string",
          "name": "_imageId",
          "type": "string"
        }
      ],
      "name": "getUser",
      "outputs": [
        {
          "internalType": "address",
          "name": "",
          "type": "address"
        }
      ],
      "stateMutability": "view",
      "type": "function",
      "constant": true
    },
    {
      "inputs": [],
      "name": "productIndex",
      "outputs": [
        {
          "internalType": "uint256",
          "name": "",
          "type": "uint256"
        }
      ],
      "stateMutability": "view",
      "type": "function",
      "constant": true
    },
    {
      "inputs": [
        {
          "internalType": "uint256",
          "name": "index_",
          "type": "uint256"
        }
      ],
      "name": "store",
      "outputs": [],
      "stateMutability": "nonpayable",
      "type": "function"
    },
    {
      "inputs": [
        {
          "internalType": "string",
          "name": "_name",
          "type": "string"
        },
        {
          "internalType": "string",
          "name": "_category",
          "type": "string"
        },
        {
          "internalType": "string",
          "name": "_imageLink",
          "type": "string"
        },
        {
          "internalType": "string",
          "name": "_descLink",
          "type": "string"
        },
        {
          "internalType": "uint256",
          "name": "_auctionStartTime",
          "type": "uint256"
        },
        {
          "internalType": "uint256",
          "name": "_auctionEndTime",
          "type": "uint256"
        },
        {
          "internalType": "string",
          "name": "_startPrice",
          "type": "string"
        }
      ],
      "name": "addProductToStore",
      "outputs": [],
      "stateMutability": "nonpayable",
      "type": "function"
    },
    {
      "inputs": [
        {
          "internalType": "uint256",
          "name": "_productId",
          "type": "uint256"
        }
      ],
      "name": "getProduct",
      "outputs": [
        {
          "internalType": "uint256",
          "name": "",
          "type": "uint256"
        },
        {
          "internalType": "string",
          "name": "",
          "type": "string"
        },
        {
          "internalType": "string",
          "name": "",
          "type": "string"
        },
        {
          "internalType": "string",
          "name": "",
          "type": "string"
        },
        {
          "internalType": "string",
          "name": "",
          "type": "string"
        },
        {
          "internalType": "uint256",
          "name": "",
          "type": "uint256"
        },
        {
          "internalType": "uint256",
          "name": "",
          "type": "uint256"
        },
        {
          "internalType": "uint256",
          "name": "",
          "type": "uint256"
        },
        {
          "internalType": "enum EcommerceStore.ProductStatus",
          "name": "",
          "type": "uint8"
        }
      ],
      "stateMutability": "view",
      "type": "function",
      "constant": true
    },
    {
      "inputs": [
        {
          "internalType": "uint256",
          "name": "_productId",
          "type": "uint256"
        },
        {
          "internalType": "bytes32",
          "name": "_bid",
          "type": "bytes32"
        }
      ],
      "name": "bid",
      "outputs": [
        {
          "internalType": "bool",
          "name": "",
          "type": "bool"
        }
      ],
      "stateMutability": "payable",
      "type": "function",
      "payable": true
    },
    {
      "inputs": [
        {
          "internalType": "uint256",
          "name": "_productId",
          "type": "uint256"
        },
        {
          "internalType": "string",
          "name": "_amount",
          "type": "string"
        },
        {
          "internalType": "string",
          "name": "_secret",
          "type": "string"
        }
      ],
      "name": "revealBid",
      "outputs": [],
      "stateMutability": "nonpayable",
      "type": "function"
    },
    {
      "inputs": [
        {
          "internalType": "uint256",
          "name": "_productId",
          "type": "uint256"
        }
      ],
      "name": "highestBidderInfo",
      "outputs": [
        {
          "internalType": "address",
          "name": "",
          "type": "address"
        },
        {
          "internalType": "uint256",
          "name": "",
          "type": "uint256"
        },
        {
          "internalType": "uint256",
          "name": "",
          "type": "uint256"
        }
      ],
      "stateMutability": "view",
      "type": "function",
      "constant": true
    },
    {
      "inputs": [
        {
          "internalType": "uint256",
          "name": "_productId",
          "type": "uint256"
        }
      ],
      "name": "totalBids",
      "outputs": [
        {
          "internalType": "uint256",
          "name": "",
          "type": "uint256"
        }
      ],
      "stateMutability": "view",
      "type": "function",
      "constant": true
    },
    {
      "inputs": [
        {
          "internalType": "uint256",
          "name": "_productId",
          "type": "uint256"
        }
      ],
      "name": "finalizeAuction",
      "outputs": [],
      "stateMutability": "nonpayable",
      "type": "function"
    },
    {
      "inputs": [
        {
          "internalType": "uint256",
          "name": "_productId",
          "type": "uint256"
        }
      ],
      "name": "escrowAddressForProduct",
      "outputs": [
        {
          "internalType": "address",
          "name": "",
          "type": "address"
        }
      ],
      "stateMutability": "view",
      "type": "function",
      "constant": true
    },
    {
      "inputs": [
        {
          "internalType": "uint256",
          "name": "_productId",
          "type": "uint256"
        }
      ],
      "name": "escrowInfo",
      "outputs": [
        {
          "internalType": "address",
          "name": "",
          "type": "address"
        },
        {
          "internalType": "address",
          "name": "",
          "type": "address"
        },
        {
          "internalType": "address",
          "name": "",
          "type": "address"
        },
        {
          "internalType": "bool",
          "name": "",
          "type": "bool"
        },
        {
          "internalType": "uint256",
          "name": "",
          "type": "uint256"
        },
        {
          "internalType": "uint256",
          "name": "",
          "type": "uint256"
        }
      ],
      "stateMutability": "view",
      "type": "function",
      "constant": true
    },
    {
      "inputs": [
        {
          "internalType": "uint256",
          "name": "_productId",
          "type": "uint256"
        }
      ],
      "name": "releaseAmountToSeller",
      "outputs": [],
      "stateMutability": "nonpayable",
      "type": "function"
    },
    {
      "inputs": [
        {
          "internalType": "uint256",
          "name": "_productId",
          "type": "uint256"
        }
      ],
      "name": "refundAmountToBuyer",
      "outputs": [],
      "stateMutability": "nonpayable",
      "type": "function"
    },
    {
      "inputs": [
        {
          "internalType": "string",
          "name": "_amount",
          "type": "string"
        },
        {
          "internalType": "string",
          "name": "_secret",
          "type": "string"
        }
      ],
      "name": "keccak",
      "outputs": [
        {
          "internalType": "bytes32",
          "name": "",
          "type": "bytes32"
        }
      ],
      "stateMutability": "pure",
      "type": "function",
      "constant": true
    }
  ],
  "bytecode": "0x608060405234801561001057600080fd5b506150b1806100206000396000f3fe6080604052600436106200012e5760003560e01c80639a3a7c6911620000af578063ce818ea9116200006d578063ce818ea91462000476578063e808386314620004bc578063ea1591bb14620004ea578063f0d10d011462000520578063f85f196e1462000564576200012e565b80639a3a7c691462000370578063b9db15b4146200039e578063c04fc37e14620003ea578063c897d5a61462000418578063cc352db71462000448576200012e565b80634389754a11620000fd5780634389754a146200022d578063553289d814620002715780636057361d14620002b5578063742978da14620002e3578063835605251462000327576200012e565b80631ba4153d146200013357806328e3d190146200017757806331feb67114620001bb57806337410dfa14620001ff575b600080fd5b3480156200014057600080fd5b506200015f600480360381019062000159919062002815565b62000592565b6040516200016e9190620028ef565b60405180910390f35b3480156200018457600080fd5b50620001a360048036038101906200019d91906200294e565b6200064f565b604051620001b2919062002991565b60405180910390f35b348015620001c857600080fd5b50620001e76004803603810190620001e1919062002815565b620006e4565b604051620001f69190620029f3565b60405180910390f35b3480156200020c57600080fd5b506200022b600480360381019062000225919062002a10565b62000730565b005b3480156200023a57600080fd5b506200025960048036038101906200025391906200294e565b620009b5565b604051620002689190620029f3565b60405180910390f35b3480156200027e57600080fd5b506200029d600480360381019062000297919062002815565b620009f2565b604051620002ac919062002991565b60405180910390f35b348015620002c257600080fd5b50620002e16004803603810190620002db91906200294e565b62000a1e565b005b348015620002f057600080fd5b506200030f600480360381019062000309919062002ac6565b62000a28565b6040516200031e919062002c1a565b60405180910390f35b3480156200033457600080fd5b506200035360048036038101906200034d91906200294e565b62000b4a565b604051620003679695949392919062002c5b565b60405180910390f35b3480156200037d57600080fd5b506200039c60048036038101906200039691906200294e565b62000c0d565b005b348015620003ab57600080fd5b50620003ca6004803603810190620003c491906200294e565b62000cb2565b604051620003e19998979695949392919062002d48565b60405180910390f35b348015620003f757600080fd5b5062000416600480360381019062000410919062002e03565b62000fed565b005b3480156200042557600080fd5b5062000430620011cd565b6040516200043f919062002991565b60405180910390f35b3480156200045557600080fd5b506200047460048036038101906200046e91906200294e565b620011d3565b005b3480156200048357600080fd5b50620004a260048036038101906200049c91906200294e565b62001278565b604051620004b39392919062002f51565b60405180910390f35b348015620004c957600080fd5b50620004e86004803603810190620004e291906200294e565b62001340565b005b62000508600480360381019062000502919062002fc9565b62001900565b60405162000517919062003010565b60405180910390f35b3480156200052d57600080fd5b506200054c600480360381019062000546919062002a10565b62001c80565b6040516200055b91906200303e565b60405180910390f35b3480156200057157600080fd5b506200059060048036038101906200058a91906200305b565b62001cba565b005b6060600082604051620005a6919062003137565b90815260200160405180910390206000018054620005c4906200317f565b80601f0160208091040260200160405190810160405280929190818152602001828054620005f2906200317f565b8015620006435780601f10620006175761010080835404028352916020019162000643565b820191906000526020600020905b8154815290600101906020018083116200062557829003601f168201915b50505050509050919050565b600080600360006004600086815260200190815260200160002060009054906101000a900473ffffffffffffffffffffffffffffffffffffffff1673ffffffffffffffffffffffffffffffffffffffff1673ffffffffffffffffffffffffffffffffffffffff1681526020019081526020016000206000848152602001908152602001600020905080600b0154915050919050565b60008082604051620006f7919062003137565b908152602001604051809103902060020160009054906101000a900473ffffffffffffffffffffffffffffffffffffffff169050919050565b600082511162000777576040517f08c379a00000000000000000000000000000000000000000000000000000000081526004016200076e9062003204565b60405180910390fd5b6000815111620007be576040517f08c379a0000000000000000000000000000000000000000000000000000000008152600401620007b59062003276565b60405180910390fd5b60008083604051620007d1919062003137565b9081526020016040518091039020600101541462000826576040517f08c379a00000000000000000000000000000000000000000000000000000000081526004016200081d90620032e8565b60405180910390fd5b600060405180606001604052808381526020014281526020013373ffffffffffffffffffffffffffffffffffffffff168152509050806000846040516200086e919062003137565b90815260200160405180910390206000820151816000019081620008939190620034dc565b506020820151816001015560408201518160020160006101000a81548173ffffffffffffffffffffffffffffffffffffffff021916908373ffffffffffffffffffffffffffffffffffffffff160217905550905050600160003373ffffffffffffffffffffffffffffffffffffffff1673ffffffffffffffffffffffffffffffffffffffff168152602001908152602001600020839080600181540180825580915050600190039060005260206000200160009091909190915090816200095b9190620034dc565b503373ffffffffffffffffffffffffffffffffffffffff167f0cfe236a9632ec5d35ac0ea4f44b2d0e800e40ef84a2ac34ac2d152439b99375848442604051620009a893929190620035c3565b60405180910390a2505050565b60006005600083815260200190815260200160002060009054906101000a900473ffffffffffffffffffffffffffffffffffffffff169050919050565b6000808260405162000a05919062003137565b9081526020016040518091039020600101549050919050565b8060028190555050565b6060600160008373ffffffffffffffffffffffffffffffffffffffff1673ffffffffffffffffffffffffffffffffffffffff168152602001908152602001600020805480602002602001604051908101604052809291908181526020016000905b8282101562000b3f57838290600052602060002001805462000aab906200317f565b80601f016020809104026020016040519081016040528092919081815260200182805462000ad9906200317f565b801562000b2a5780601f1062000afe5761010080835404028352916020019162000b2a565b820191906000526020600020905b81548152906001019060200180831162000b0c57829003601f168201915b50505050508152602001906001019062000a89565b505050509050919050565b6000806000806000806005600088815260200190815260200160002060009054906101000a900473ffffffffffffffffffffffffffffffffffffffff1673ffffffffffffffffffffffffffffffffffffffff1663f3d259046040518163ffffffff1660e01b815260040160c060405180830381865afa15801562000bd2573d6000803e3d6000fd5b505050506040513d601f19601f8201168201806040525081019062000bf891906200366d565b95509550955095509550955091939550919395565b6005600082815260200190815260200160002060009054906101000a900473ffffffffffffffffffffffffffffffffffffffff1673ffffffffffffffffffffffffffffffffffffffff166358aad10b336040518263ffffffff1660e01b815260040162000c7b9190620029f3565b600060405180830381600087803b15801562000c9657600080fd5b505af115801562000cab573d6000803e3d6000fd5b5050505050565b6000606080606080600080600080600060036000600460008e815260200190815260200160002060009054906101000a900473ffffffffffffffffffffffffffffffffffffffff1673ffffffffffffffffffffffffffffffffffffffff1673ffffffffffffffffffffffffffffffffffffffff16815260200190815260200160002060008c8152602001908152602001600020905080600001548160010182600201836003018460040185600501548660060154876007015488600c0160009054906101000a900460ff1687805462000d8b906200317f565b80601f016020809104026020016040519081016040528092919081815260200182805462000db9906200317f565b801562000e0a5780601f1062000dde5761010080835404028352916020019162000e0a565b820191906000526020600020905b81548152906001019060200180831162000dec57829003601f168201915b5050505050975086805462000e1f906200317f565b80601f016020809104026020016040519081016040528092919081815260200182805462000e4d906200317f565b801562000e9e5780601f1062000e725761010080835404028352916020019162000e9e565b820191906000526020600020905b81548152906001019060200180831162000e8057829003601f168201915b5050505050965085805462000eb3906200317f565b80601f016020809104026020016040519081016040528092919081815260200182805462000ee1906200317f565b801562000f325780601f1062000f065761010080835404028352916020019162000f32565b820191906000526020600020905b81548152906001019060200180831162000f1457829003601f168201915b5050505050955084805462000f47906200317f565b80601f016020809104026020016040519081016040528092919081815260200182805462000f75906200317f565b801562000fc65780601f1062000f9a5761010080835404028352916020019162000fc6565b820191906000526020600020905b81548152906001019060200180831162000fa857829003601f168201915b50505050509450995099509950995099509950995099509950509193959799909294969850565b81831062000ffa57600080fd5b6001600260008282546200100f919062003738565b925050819055506000600360003373ffffffffffffffffffffffffffffffffffffffff1673ffffffffffffffffffffffffffffffffffffffff1681526020019081526020016000206000600254815260200190815260200160002090506002548160000181905550878160010190816200108a9190620034dc565b50868160020190816200109e9190620034dc565b5085816003019081620010b29190620034dc565b5084816004019081620010c69190620034dc565b50838160050181905550828160060181905550620010e4826200218c565b8160070181905550600081600c0160006101000a81548160ff0219169083600281111562001117576200111662002cc8565b5b02179055503360046000600254815260200190815260200160002060006101000a81548173ffffffffffffffffffffffffffffffffffffffff021916908373ffffffffffffffffffffffffffffffffffffffff1602179055507fd952ab5034808c75d7ae7c37cf56ef07be795c8c8d212578af61c43f81b5b2b8600254898989898989620011a58a6200218c565b604051620011bb98979695949392919062003773565b60405180910390a15050505050505050565b60025481565b6005600082815260200190815260200160002060009054906101000a900473ffffffffffffffffffffffffffffffffffffffff1673ffffffffffffffffffffffffffffffffffffffff1663a97d1b10336040518263ffffffff1660e01b8152600401620012419190620029f3565b600060405180830381600087803b1580156200125c57600080fd5b505af115801562001271573d6000803e3d6000fd5b5050505050565b600080600080600360006004600088815260200190815260200160002060009054906101000a900473ffffffffffffffffffffffffffffffffffffffff1673ffffffffffffffffffffffffffffffffffffffff1673ffffffffffffffffffffffffffffffffffffffff168152602001908152602001600020600086815260200190815260200160002090508060080160009054906101000a900473ffffffffffffffffffffffffffffffffffffffff16816009015482600a0154935093509350509193909250565b6000600360006004600085815260200190815260200160002060009054906101000a900473ffffffffffffffffffffffffffffffffffffffff1673ffffffffffffffffffffffffffffffffffffffff1673ffffffffffffffffffffffffffffffffffffffff168152602001908152602001600020600083815260200190815260200160002090508060060154421162001410576040517f08c379a000000000000000000000000000000000000000000000000000000000815260040162001407906200386d565b60405180910390fd5b6000600281111562001427576200142662002cc8565b5b81600c0160009054906101000a900460ff1660028111156200144e576200144d62002cc8565b5b1462001491576040517f08c379a00000000000000000000000000000000000000000000000000000000081526004016200148890620038df565b60405180910390fd5b3373ffffffffffffffffffffffffffffffffffffffff168160080160009054906101000a900473ffffffffffffffffffffffffffffffffffffffff1673ffffffffffffffffffffffffffffffffffffffff160362001526576040517f08c379a00000000000000000000000000000000000000000000000000000000081526004016200151d9062003951565b60405180910390fd5b3373ffffffffffffffffffffffffffffffffffffffff166004600084815260200190815260200160002060009054906101000a900473ffffffffffffffffffffffffffffffffffffffff1673ffffffffffffffffffffffffffffffffffffffff1603620015ca576040517f08c379a0000000000000000000000000000000000000000000000000000000008152600401620015c190620039c3565b60405180910390fd5b600073ffffffffffffffffffffffffffffffffffffffff168160080160009054906101000a900473ffffffffffffffffffffffffffffffffffffffff1673ffffffffffffffffffffffffffffffffffffffff16036200165957600281600c0160006101000a81548160ff021916908360028111156200164e576200164d62002cc8565b5b0217905550620018fc565b600081600a0154838360080160009054906101000a900473ffffffffffffffffffffffffffffffffffffffff166004600087815260200190815260200160002060009054906101000a900473ffffffffffffffffffffffffffffffffffffffff1633604051620016c9906200262c565b620016d89493929190620039e5565b6040518091039082f0905080158015620016f6573d6000803e3d6000fd5b509050806005600085815260200190815260200160002060006101000a81548173ffffffffffffffffffffffffffffffffffffffff021916908373ffffffffffffffffffffffffffffffffffffffff160217905550600182600c0160006101000a81548160ff0219169083600281111562001776576200177562002cc8565b5b0217905550600082600a0154836009015462001793919062003a32565b90508260080160009054906101000a900473ffffffffffffffffffffffffffffffffffffffff1673ffffffffffffffffffffffffffffffffffffffff166108fc829081150290604051600060405180830381858888f1935050505015801562001800573d6000803e3d6000fd5b50620018f983600301805462001816906200317f565b80601f016020809104026020016040519081016040528092919081815260200182805462001844906200317f565b8015620018955780601f10620018695761010080835404028352916020019162001895565b820191906000526020600020905b8154815290600101906020018083116200187757829003601f168201915b50505050506004600087815260200190815260200160002060009054906101000a900473ffffffffffffffffffffffffffffffffffffffff168560080160009054906101000a900473ffffffffffffffffffffffffffffffffffffffff1662002279565b50505b5050565b600080600360006004600087815260200190815260200160002060009054906101000a900473ffffffffffffffffffffffffffffffffffffffff1673ffffffffffffffffffffffffffffffffffffffff1673ffffffffffffffffffffffffffffffffffffffff168152602001908152602001600020600085815260200190815260200160002090508060050154421015620019d2576040517f08c379a0000000000000000000000000000000000000000000000000000000008152600401620019c99062003abd565b60405180910390fd5b806006015442111562001a1c576040517f08c379a000000000000000000000000000000000000000000000000000000000815260040162001a139062003b2f565b60405180910390fd5b806007015434101562001a66576040517f08c379a000000000000000000000000000000000000000000000000000000000815260040162001a5d9062003ba1565b60405180910390fd5b600073ffffffffffffffffffffffffffffffffffffffff1681600d0160003373ffffffffffffffffffffffffffffffffffffffff1673ffffffffffffffffffffffffffffffffffffffff168152602001908152602001600020600085815260200190815260200160002060000160009054906101000a900473ffffffffffffffffffffffffffffffffffffffff1673ffffffffffffffffffffffffffffffffffffffff161462001b4d576040517f08c379a000000000000000000000000000000000000000000000000000000000815260040162001b449062003c13565b60405180910390fd5b60405180608001604052803373ffffffffffffffffffffffffffffffffffffffff1681526020018581526020013481526020016000151581525081600d0160003373ffffffffffffffffffffffffffffffffffffffff1673ffffffffffffffffffffffffffffffffffffffff168152602001908152602001600020600085815260200190815260200160002060008201518160000160006101000a81548173ffffffffffffffffffffffffffffffffffffffff021916908373ffffffffffffffffffffffffffffffffffffffff160217905550602082015181600101556040820151816002015560608201518160030160006101000a81548160ff021916908315150217905550905050600181600b01600082825462001c6e919062003738565b92505081905550600191505092915050565b600080838360405160200162001c9892919062003c35565b6040516020818303038152906040528051906020012090508091505092915050565b6000600360006004600087815260200190815260200160002060009054906101000a900473ffffffffffffffffffffffffffffffffffffffff1673ffffffffffffffffffffffffffffffffffffffff1673ffffffffffffffffffffffffffffffffffffffff168152602001908152602001600020600085815260200190815260200160002090508060050154421162001d5257600080fd5b6000838360405160200162001d6992919062003c35565b604051602081830303815290604052805190602001209050600082600d0160003373ffffffffffffffffffffffffffffffffffffffff1673ffffffffffffffffffffffffffffffffffffffff16815260200190815260200160002060008381526020019081526020016000206040518060800160405290816000820160009054906101000a900473ffffffffffffffffffffffffffffffffffffffff1673ffffffffffffffffffffffffffffffffffffffff1673ffffffffffffffffffffffffffffffffffffffff16815260200160018201548152602001600282015481526020016003820160009054906101000a900460ff1615151515815250509050600073ffffffffffffffffffffffffffffffffffffffff16816000015173ffffffffffffffffffffffffffffffffffffffff161162001ea557600080fd5b60001515816060015115151462001ebb57600080fd5b60008062001ec9876200218c565b90506000836040015190508181101562001ee657809250620020c0565b600073ffffffffffffffffffffffffffffffffffffffff168660080160009054906101000a900473ffffffffffffffffffffffffffffffffffffffff1673ffffffffffffffffffffffffffffffffffffffff160362001fae57338660080160006101000a81548173ffffffffffffffffffffffffffffffffffffffff021916908373ffffffffffffffffffffffffffffffffffffffff160217905550818660090181905550856007015486600a0181905550818162001fa6919062003a32565b9250620020bf565b85600901548211156200209a57856009015486600a01819055508560080160009054906101000a900473ffffffffffffffffffffffffffffffffffffffff1673ffffffffffffffffffffffffffffffffffffffff166108fc87600901549081150290604051600060405180830381858888f1935050505015801562002037573d6000803e3d6000fd5b50338660080160006101000a81548173ffffffffffffffffffffffffffffffffffffffff021916908373ffffffffffffffffffffffffffffffffffffffff160217905550818660090181905550818162002092919062003a32565b9250620020be565b85600a0154821115620020b9578186600a0181905550819250620020bd565b8192505b5b5b5b600186600d0160003373ffffffffffffffffffffffffffffffffffffffff1673ffffffffffffffffffffffffffffffffffffffff168152602001908152602001600020600087815260200190815260200160002060030160006101000a81548160ff021916908315150217905550600083111562002181573373ffffffffffffffffffffffffffffffffffffffff166108fc849081150290604051600060405180830381858888f193505050501580156200217f573d6000803e3d6000fd5b505b505050505050505050565b6000808290506000805b82518110156200226e576030838281518110620021b857620021b762003c70565b5b602001015160f81c60f81b60f81c60ff1610158015620021ff57506039838281518110620021eb57620021ea62003c70565b5b602001015160f81c60f81b60f81c60ff1611155b15620022585760308382815181106200221d576200221c62003c70565b5b602001015160f81c60f81b60f81c62002237919062003cac565b60ff16600a8362002249919062003ce8565b62002255919062003738565b91505b8080620022659062003d33565b91505062002196565b508092505050919050565b600073ffffffffffffffffffffffffffffffffffffffff168173ffffffffffffffffffffffffffffffffffffffff1603620022eb576040517f08c379a0000000000000000000000000000000000000000000000000000000008152600401620022e29062003dd0565b60405180910390fd5b8173ffffffffffffffffffffffffffffffffffffffff1660008460405162002314919062003137565b908152602001604051809103902060020160009054906101000a900473ffffffffffffffffffffffffffffffffffffffff1673ffffffffffffffffffffffffffffffffffffffff16146200239f576040517f08c379a0000000000000000000000000000000000000000000000000000000008152600401620023969062003e68565b60405180910390fd5b6000600160008473ffffffffffffffffffffffffffffffffffffffff1673ffffffffffffffffffffffffffffffffffffffff168152602001908152602001600020905060005b8180549050811015620024e857848051906020012082828154811062002410576200240f62003c70565b5b9060005260206000200160405162002429919062003f39565b604051809103902003620024d25781600183805490506200244b919062003a32565b815481106200245f576200245e62003c70565b5b906000526020600020018282815481106200247f576200247e62003c70565b5b90600052602060002001908162002497919062003f7f565b5081805480620024ac57620024ab62004080565b5b600190038181906000526020600020016000620024ca91906200263a565b9055620024e8565b8080620024df9062003d33565b915050620023e5565b50600160008373ffffffffffffffffffffffffffffffffffffffff1673ffffffffffffffffffffffffffffffffffffffff168152602001908152602001600020849080600181540180825580915050600190039060005260206000200160009091909190915090816200255c9190620034dc565b508160008560405162002570919062003137565b908152602001604051809103902060020160006101000a81548173ffffffffffffffffffffffffffffffffffffffff021916908373ffffffffffffffffffffffffffffffffffffffff1602179055508173ffffffffffffffffffffffffffffffffffffffff168373ffffffffffffffffffffffffffffffffffffffff167f653bc42abb4e9566e224482c8ed6335fd3dddb14b7b25a3adc5461870b4bc463866040516200261e9190620028ef565b60405180910390a350505050565b610fcc80620040b083390190565b50805462002648906200317f565b6000825580601f106200265c57506200267d565b601f0160209004906000526020600020908101906200267c919062002680565b5b50565b5b808211156200269b57600081600090555060010162002681565b5090565b6000604051905090565b600080fd5b600080fd5b600080fd5b600080fd5b6000601f19601f8301169050919050565b7f4e487b7100000000000000000000000000000000000000000000000000000000600052604160045260246000fd5b6200270882620026bd565b810181811067ffffffffffffffff821117156200272a5762002729620026ce565b5b80604052505050565b60006200273f6200269f565b90506200274d8282620026fd565b919050565b600067ffffffffffffffff82111562002770576200276f620026ce565b5b6200277b82620026bd565b9050602081019050919050565b82818337600083830152505050565b6000620027ae620027a88462002752565b62002733565b905082815260208101848484011115620027cd57620027cc620026b8565b5b620027da84828562002788565b509392505050565b600082601f830112620027fa57620027f9620026b3565b5b81356200280c84826020860162002797565b91505092915050565b6000602082840312156200282e576200282d620026a9565b5b600082013567ffffffffffffffff8111156200284f576200284e620026ae565b5b6200285d84828501620027e2565b91505092915050565b600081519050919050565b600082825260208201905092915050565b60005b83811015620028a257808201518184015260208101905062002885565b60008484015250505050565b6000620028bb8262002866565b620028c7818562002871565b9350620028d981856020860162002882565b620028e481620026bd565b840191505092915050565b600060208201905081810360008301526200290b8184620028ae565b905092915050565b6000819050919050565b620029288162002913565b81146200293457600080fd5b50565b60008135905062002948816200291d565b92915050565b600060208284031215620029675762002966620026a9565b5b6000620029778482850162002937565b91505092915050565b6200298b8162002913565b82525050565b6000602082019050620029a8600083018462002980565b92915050565b600073ffffffffffffffffffffffffffffffffffffffff82169050919050565b6000620029db82620029ae565b9050919050565b620029ed81620029ce565b82525050565b600060208201905062002a0a6000830184620029e2565b92915050565b6000806040838503121562002a2a5762002a29620026a9565b5b600083013567ffffffffffffffff81111562002a4b5762002a4a620026ae565b5b62002a5985828601620027e2565b925050602083013567ffffffffffffffff81111562002a7d5762002a7c620026ae565b5b62002a8b85828601620027e2565b9150509250929050565b62002aa081620029ce565b811462002aac57600080fd5b50565b60008135905062002ac08162002a95565b92915050565b60006020828403121562002adf5762002ade620026a9565b5b600062002aef8482850162002aaf565b91505092915050565b600081519050919050565b600082825260208201905092915050565b6000819050602082019050919050565b600082825260208201905092915050565b600062002b428262002866565b62002b4e818562002b24565b935062002b6081856020860162002882565b62002b6b81620026bd565b840191505092915050565b600062002b84838362002b35565b905092915050565b6000602082019050919050565b600062002ba68262002af8565b62002bb2818562002b03565b93508360208202850162002bc68562002b14565b8060005b8581101562002c08578484038952815162002be6858262002b76565b945062002bf38362002b8c565b925060208a0199505060018101905062002bca565b50829750879550505050505092915050565b6000602082019050818103600083015262002c36818462002b99565b905092915050565b60008115159050919050565b62002c558162002c3e565b82525050565b600060c08201905062002c726000830189620029e2565b62002c816020830188620029e2565b62002c906040830187620029e2565b62002c9f606083018662002c4a565b62002cae608083018562002980565b62002cbd60a083018462002980565b979650505050505050565b7f4e487b7100000000000000000000000000000000000000000000000000000000600052602160045260246000fd5b6003811062002d0b5762002d0a62002cc8565b5b50565b600081905062002d1e8262002cf7565b919050565b600062002d308262002d0e565b9050919050565b62002d428162002d23565b82525050565b60006101208201905062002d60600083018c62002980565b818103602083015262002d74818b620028ae565b9050818103604083015262002d8a818a620028ae565b9050818103606083015262002da08189620028ae565b9050818103608083015262002db68188620028ae565b905062002dc760a083018762002980565b62002dd660c083018662002980565b62002de560e083018562002980565b62002df561010083018462002d37565b9a9950505050505050505050565b600080600080600080600060e0888a03121562002e255762002e24620026a9565b5b600088013567ffffffffffffffff81111562002e465762002e45620026ae565b5b62002e548a828b01620027e2565b975050602088013567ffffffffffffffff81111562002e785762002e77620026ae565b5b62002e868a828b01620027e2565b965050604088013567ffffffffffffffff81111562002eaa5762002ea9620026ae565b5b62002eb88a828b01620027e2565b955050606088013567ffffffffffffffff81111562002edc5762002edb620026ae565b5b62002eea8a828b01620027e2565b945050608062002efd8a828b0162002937565b93505060a062002f108a828b0162002937565b92505060c088013567ffffffffffffffff81111562002f345762002f33620026ae565b5b62002f428a828b01620027e2565b91505092959891949750929550565b600060608201905062002f686000830186620029e2565b62002f77602083018562002980565b62002f86604083018462002980565b949350505050565b6000819050919050565b62002fa38162002f8e565b811462002faf57600080fd5b50565b60008135905062002fc38162002f98565b92915050565b6000806040838503121562002fe35762002fe2620026a9565b5b600062002ff38582860162002937565b9250506020620030068582860162002fb2565b9150509250929050565b600060208201905062003027600083018462002c4a565b92915050565b620030388162002f8e565b82525050565b60006020820190506200305560008301846200302d565b92915050565b600080600060608486031215620030775762003076620026a9565b5b6000620030878682870162002937565b935050602084013567ffffffffffffffff811115620030ab57620030aa620026ae565b5b620030b986828701620027e2565b925050604084013567ffffffffffffffff811115620030dd57620030dc620026ae565b5b620030eb86828701620027e2565b9150509250925092565b600081905092915050565b60006200310d8262002866565b620031198185620030f5565b93506200312b81856020860162002882565b80840191505092915050565b600062003145828462003100565b915081905092915050565b7f4e487b7100000000000000000000000000000000000000000000000000000000600052602260045260246000fd5b600060028204905060018216806200319857607f821691505b602082108103620031ae57620031ad62003150565b5b50919050565b7f496d6167652049442063616e6e6f7420626520656d7074790000000000000000600082015250565b6000620031ec60188362002871565b9150620031f982620031b4565b602082019050919050565b600060208201905081810360008301526200321f81620031dd565b9050919050565b7f4e616d652063616e6e6f7420626520656d707479000000000000000000000000600082015250565b60006200325e60148362002871565b91506200326b8262003226565b602082019050919050565b6000602082019050818103600083015262003291816200324f565b9050919050565b7f417373657420616c726561647920657869737473000000000000000000000000600082015250565b6000620032d060148362002871565b9150620032dd8262003298565b602082019050919050565b600060208201905081810360008301526200330381620032c1565b9050919050565b60008190508160005260206000209050919050565b60006020601f8301049050919050565b600082821b905092915050565b6000600883026200336e7fffffffffffffffffffffffffffffffffffffffffffffffffffffffffffffffff826200332f565b6200337a86836200332f565b95508019841693508086168417925050509392505050565b6000819050919050565b6000620033bd620033b7620033b18462002913565b62003392565b62002913565b9050919050565b6000819050919050565b620033d9836200339c565b620033f1620033e882620033c4565b8484546200333c565b825550505050565b600090565b62003408620033f9565b62003415818484620033ce565b505050565b5b818110156200343d5762003431600082620033fe565b6001810190506200341b565b5050565b601f8211156200348c5762003456816200330a565b62003461846200331f565b8101602085101562003471578190505b6200348962003480856200331f565b8301826200341a565b50505b505050565b600082821c905092915050565b6000620034b16000198460080262003491565b1980831691505092915050565b6000620034cc83836200349e565b9150826002028217905092915050565b620034e78262002866565b67ffffffffffffffff811115620035035762003502620026ce565b5b6200350f82546200317f565b6200351c82828562003441565b600060209050601f8311600181146200355457600084156200353f578287015190505b6200354b8582620034be565b865550620035bb565b601f19841662003564866200330a565b60005b828110156200358e5784890151825560018201915060208501945060208101905062003567565b86831015620035ae5784890151620035aa601f8916826200349e565b8355505b6001600288020188555050505b505050505050565b60006060820190508181036000830152620035df8186620028ae565b90508181036020830152620035f58185620028ae565b905062003606604083018462002980565b949350505050565b6000815190506200361f8162002a95565b92915050565b620036308162002c3e565b81146200363c57600080fd5b50565b600081519050620036508162003625565b92915050565b60008151905062003667816200291d565b92915050565b60008060008060008060c087890312156200368d576200368c620026a9565b5b60006200369d89828a016200360e565b9650506020620036b089828a016200360e565b9550506040620036c389828a016200360e565b9450506060620036d689828a016200363f565b9350506080620036e989828a0162003656565b92505060a0620036fc89828a0162003656565b9150509295509295509295565b7f4e487b7100000000000000000000000000000000000000000000000000000000600052601160045260246000fd5b6000620037458262002913565b9150620037528362002913565b92508282019050808211156200376d576200376c62003709565b5b92915050565b6000610100820190506200378b600083018b62002980565b81810360208301526200379f818a620028ae565b90508181036040830152620037b58189620028ae565b90508181036060830152620037cb8188620028ae565b90508181036080830152620037e18187620028ae565b9050620037f260a083018662002980565b6200380160c083018562002980565b6200381060e083018462002980565b9998505050505050505050565b7f4261642054696d65000000000000000000000000000000000000000000000000600082015250565b60006200385560088362002871565b915062003862826200381d565b602082019050919050565b60006020820190508181036000830152620038888162003846565b9050919050565b7f4261642053746174757300000000000000000000000000000000000000000000600082015250565b6000620038c7600a8362002871565b9150620038d4826200388f565b602082019050919050565b60006020820190508181036000830152620038fa81620038b8565b9050919050565b7f4261642068696768657374426964646572000000000000000000000000000000600082015250565b60006200393960118362002871565b9150620039468262003901565b602082019050919050565b600060208201905081810360008301526200396c816200392a565b9050919050565b7f4261642070726f647563744964496e53746f72655b5f70726f6475637449645d600082015250565b6000620039ab60208362002871565b9150620039b88262003973565b602082019050919050565b60006020820190508181036000830152620039de816200399c565b9050919050565b6000608082019050620039fc600083018762002980565b62003a0b6020830186620029e2565b62003a1a6040830185620029e2565b62003a296060830184620029e2565b95945050505050565b600062003a3f8262002913565b915062003a4c8362002913565b925082820390508181111562003a675762003a6662003709565b5b92915050565b7f3e00000000000000000000000000000000000000000000000000000000000000600082015250565b600062003aa560018362002871565b915062003ab28262003a6d565b602082019050919050565b6000602082019050818103600083015262003ad88162003a96565b9050919050565b7f3c00000000000000000000000000000000000000000000000000000000000000600082015250565b600062003b1760018362002871565b915062003b248262003adf565b602082019050919050565b6000602082019050818103600083015262003b4a8162003b08565b9050919050565b7f3d00000000000000000000000000000000000000000000000000000000000000600082015250565b600062003b8960018362002871565b915062003b968262003b51565b602082019050919050565b6000602082019050818103600083015262003bbc8162003b7a565b9050919050565b7f3d3d000000000000000000000000000000000000000000000000000000000000600082015250565b600062003bfb60028362002871565b915062003c088262003bc3565b602082019050919050565b6000602082019050818103600083015262003c2e8162003bec565b9050919050565b6000604082019050818103600083015262003c518185620028ae565b9050818103602083015262003c678184620028ae565b90509392505050565b7f4e487b7100000000000000000000000000000000000000000000000000000000600052603260045260246000fd5b600060ff82169050919050565b600062003cb98262003c9f565b915062003cc68362003c9f565b9250828203905060ff81111562003ce25762003ce162003709565b5b92915050565b600062003cf58262002913565b915062003d028362002913565b925082820262003d128162002913565b9150828204841483151762003d2c5762003d2b62003709565b5b5092915050565b600062003d408262002913565b91507fffffffffffffffffffffffffffffffffffffffffffffffffffffffffffffffff820362003d755762003d7462003709565b5b600182019050919050565b7f4e6577206f776e65722063616e6e6f74206265207a65726f2061646472657373600082015250565b600062003db860208362002871565b915062003dc58262003d80565b602082019050919050565b6000602082019050818103600083015262003deb8162003da9565b9050919050565b7f546865206f6c64206f776e6572206973206e6f7420746865206f776e6572206f60008201527f6620746865206173736574000000000000000000000000000000000000000000602082015250565b600062003e50602b8362002871565b915062003e5d8262003df2565b604082019050919050565b6000602082019050818103600083015262003e838162003e41565b9050919050565b600081905092915050565b60008190508160005260206000209050919050565b6000815462003eb9816200317f565b62003ec5818662003e8a565b9450600182166000811462003ee3576001811462003ef95762003f30565b60ff198316865281151582028601935062003f30565b62003f048562003e95565b60005b8381101562003f285781548189015260018201915060208101905062003f07565b838801955050505b50505092915050565b600062003f47828462003eaa565b915081905092915050565b60008154905062003f63816200317f565b9050919050565b60008190508160005260206000209050919050565b81810362003f8f5750506200407e565b62003f9a8262003f52565b67ffffffffffffffff81111562003fb65762003fb5620026ce565b5b62003fc282546200317f565b62003fcf82828562003441565b6000601f83116001811462004003576000841562003fee578287015490505b62003ffa8582620034be565b86555062004077565b601f198416620040138762003f6a565b965062004020866200330a565b60005b828110156200404a5784890154825560018201915060018501945060208101905062004023565b868310156200406a578489015462004066601f8916826200349e565b8355505b6001600288020188555050505b5050505050505b565b7f4e487b7100000000000000000000000000000000000000000000000000000000600052603160045260246000fdfe608060405260405162000fcc38038062000fcc833981810160405281019062000029919062000203565b8360008190555082600160006101000a81548173ffffffffffffffffffffffffffffffffffffffff021916908373ffffffffffffffffffffffffffffffffffffffff16021790555081600260006101000a81548173ffffffffffffffffffffffffffffffffffffffff021916908373ffffffffffffffffffffffffffffffffffffffff16021790555080600360006101000a81548173ffffffffffffffffffffffffffffffffffffffff021916908373ffffffffffffffffffffffffffffffffffffffff160217905550346004819055506000600560006101000a81548160ff0219169083151502179055507f7527d0b8d16913563c5afb8fa2dc5b6257355ff7dfbefbdcfc1cf812a0f97c5e848484846040516200014c949392919062000297565b60405180910390a150505050620002e4565b600080fd5b6000819050919050565b620001788162000163565b81146200018457600080fd5b50565b60008151905062000198816200016d565b92915050565b600073ffffffffffffffffffffffffffffffffffffffff82169050919050565b6000620001cb826200019e565b9050919050565b620001dd81620001be565b8114620001e957600080fd5b50565b600081519050620001fd81620001d2565b92915050565b6000806000806080858703121562000220576200021f6200015e565b5b6000620002308782880162000187565b94505060206200024387828801620001ec565b93505060406200025687828801620001ec565b92505060606200026987828801620001ec565b91505092959194509250565b620002808162000163565b82525050565b6200029181620001be565b82525050565b6000608082019050620002ae600083018762000275565b620002bd602083018662000286565b620002cc604083018562000286565b620002db606083018462000286565b95945050505050565b610cd880620002f46000396000f3fe608060405234801561001057600080fd5b50600436106100a95760003560e01c8063aa8c217c11610071578063aa8c217c14610140578063b8d08db21461015e578063c5ce39111461017c578063d1a52e301461019a578063f3d25904146101b8578063fe25e00a146101db576100a9565b806308551a53146100ae5780630bda4dbf146100cc57806358aad10b146100ea5780637150d8ae14610106578063a97d1b1014610124575b600080fd5b6100b66101f9565b6040516100c391906109a3565b60405180910390f35b6100d461021f565b6040516100e191906109d7565b60405180910390f35b61010460048036038101906100ff9190610a23565b610225565b005b61010e61053d565b60405161011b91906109a3565b60405180910390f35b61013e60048036038101906101399190610a23565b610563565b005b61014861087b565b60405161015591906109d7565b60405180910390f35b610166610881565b60405161017391906109d7565b60405180910390f35b610184610887565b60405161019191906109d7565b60405180910390f35b6101a261088d565b6040516101af9190610a6b565b60405180910390f35b6101c06108a0565b6040516101d296959493929190610a86565b60405180910390f35b6101e361093c565b6040516101f091906109a3565b60405180910390f35b600260009054906101000a900473ffffffffffffffffffffffffffffffffffffffff1681565b60095481565b600560009054906101000a900460ff161561023f57600080fd5b600160009054906101000a900473ffffffffffffffffffffffffffffffffffffffff1673ffffffffffffffffffffffffffffffffffffffff168173ffffffffffffffffffffffffffffffffffffffff1614806102e85750600260009054906101000a900473ffffffffffffffffffffffffffffffffffffffff1673ffffffffffffffffffffffffffffffffffffffff168173ffffffffffffffffffffffffffffffffffffffff16145b806103405750600360009054906101000a900473ffffffffffffffffffffffffffffffffffffffff1673ffffffffffffffffffffffffffffffffffffffff168173ffffffffffffffffffffffffffffffffffffffff16145b61034957600080fd5b600660008273ffffffffffffffffffffffffffffffffffffffff1673ffffffffffffffffffffffffffffffffffffffff16815260200190815260200160002060009054906101000a900460ff16610448576001600660008373ffffffffffffffffffffffffffffffffffffffff1673ffffffffffffffffffffffffffffffffffffffff16815260200190815260200160002060006101000a81548160ff0219169083151502179055506001600760008282546104059190610b16565b925050819055507fe31e37941fee7dca6bb1597da71841499d8cd0dfc5553e0889f6d1ca6038ce966000548260405161043f929190610ba7565b60405180910390a15b60026007540361053a57600260009054906101000a900473ffffffffffffffffffffffffffffffffffffffff1673ffffffffffffffffffffffffffffffffffffffff166108fc6004549081150290604051600060405180830381858888f193505050501580156104bc573d6000803e3d6000fd5b506001600560006101000a81548160ff0219169083151502179055507fdde1058856b8611b1f49ef2ebaef10c0441e48e8a6cbbec1ebdcbfb1862b57b4600054600454600260009054906101000a900473ffffffffffffffffffffffffffffffffffffffff1660405161053193929190610be3565b60405180910390a15b50565b600160009054906101000a900473ffffffffffffffffffffffffffffffffffffffff1681565b600560009054906101000a900460ff161561057d57600080fd5b600160009054906101000a900473ffffffffffffffffffffffffffffffffffffffff1673ffffffffffffffffffffffffffffffffffffffff168173ffffffffffffffffffffffffffffffffffffffff1614806106265750600260009054906101000a900473ffffffffffffffffffffffffffffffffffffffff1673ffffffffffffffffffffffffffffffffffffffff168173ffffffffffffffffffffffffffffffffffffffff16145b8061067e5750600360009054906101000a900473ffffffffffffffffffffffffffffffffffffffff1673ffffffffffffffffffffffffffffffffffffffff168173ffffffffffffffffffffffffffffffffffffffff16145b61068757600080fd5b600860008273ffffffffffffffffffffffffffffffffffffffff1673ffffffffffffffffffffffffffffffffffffffff16815260200190815260200160002060009054906101000a900460ff16610786576001600860008373ffffffffffffffffffffffffffffffffffffffff1673ffffffffffffffffffffffffffffffffffffffff16815260200190815260200160002060006101000a81548160ff0219169083151502179055506001600960008282546107439190610b16565b925050819055507fe31e37941fee7dca6bb1597da71841499d8cd0dfc5553e0889f6d1ca6038ce966000548260405161077d929190610c66565b60405180910390a15b60026009540361087857600160009054906101000a900473ffffffffffffffffffffffffffffffffffffffff1673ffffffffffffffffffffffffffffffffffffffff166108fc6004549081150290604051600060405180830381858888f193505050501580156107fa573d6000803e3d6000fd5b506001600560006101000a81548160ff0219169083151502179055507fdde1058856b8611b1f49ef2ebaef10c0441e48e8a6cbbec1ebdcbfb1862b57b4600054600454600160009054906101000a900473ffffffffffffffffffffffffffffffffffffffff1660405161086f93929190610be3565b60405180910390a15b50565b60045481565b60075481565b60005481565b600560009054906101000a900460ff1681565b600080600080600080600160009054906101000a900473ffffffffffffffffffffffffffffffffffffffff16600260009054906101000a900473ffffffffffffffffffffffffffffffffffffffff16600360009054906101000a900473ffffffffffffffffffffffffffffffffffffffff16600560009054906101000a900460ff16600754600954955095509550955095509550909192939495565b600360009054906101000a900473ffffffffffffffffffffffffffffffffffffffff1681565b600073ffffffffffffffffffffffffffffffffffffffff82169050919050565b600061098d82610962565b9050919050565b61099d81610982565b82525050565b60006020820190506109b86000830184610994565b92915050565b6000819050919050565b6109d1816109be565b82525050565b60006020820190506109ec60008301846109c8565b92915050565b600080fd5b610a0081610982565b8114610a0b57600080fd5b50565b600081359050610a1d816109f7565b92915050565b600060208284031215610a3957610a386109f2565b5b6000610a4784828501610a0e565b91505092915050565b60008115159050919050565b610a6581610a50565b82525050565b6000602082019050610a806000830184610a5c565b92915050565b600060c082019050610a9b6000830189610994565b610aa86020830188610994565b610ab56040830187610994565b610ac26060830186610a5c565b610acf60808301856109c8565b610adc60a08301846109c8565b979650505050505050565b7f4e487b7100000000000000000000000000000000000000000000000000000000600052601160045260246000fd5b6000610b21826109be565b9150610b2c836109be565b9250828201905080821115610b4457610b43610ae7565b5b92915050565b600082825260208201905092915050565b7f72656c6561736500000000000000000000000000000000000000000000000000600082015250565b6000610b91600783610b4a565b9150610b9c82610b5b565b602082019050919050565b6000606082019050610bbc60008301856109c8565b8181036020830152610bcd81610b84565b9050610bdc6040830184610994565b9392505050565b6000606082019050610bf860008301866109c8565b610c0560208301856109c8565b610c126040830184610994565b949350505050565b7f726566756e640000000000000000000000000000000000000000000000000000600082015250565b6000610c50600683610b4a565b9150610c5b82610c1a565b602082019050919050565b6000606082019050610c7b60008301856109c8565b8181036020830152610c8c81610c43565b9050610c9b6040830184610994565b939250505056fea2646970667358221220414ad0c76d2e8b033deab48f940b512ccc3ec580d19f5e8f930d68516c63009464736f6c63430008110033a264697066735822122065e5f875ec534e237596e29511582786e40d597d72525c0379392c1a616e218b64736f6c63430008110033",
  "immutableReferences": {},
  "source": "// SPDX-License-Identifier: MIT\npragma solidity ^0.8.17;\n\nimport \"../contracts/Escrow.sol\";\nimport \"../contracts/AssetManager.sol\";\n\ncontract EcommerceStore  is AssetManager{\n    // \n    enum ProductStatus {\n        Open,\n        Sold,\n        Unsold\n    }\n\n    // \n    uint256 public productIndex;\n    // \n    mapping(address => mapping(uint256 => Product)) stores;\n    // ID\n    mapping(uint256 => address) productIdInStore;\n\n    mapping(uint256 => address) productEscrow;\n\n    // \n    struct Product {\n        // ID\n        uint256 id;\n        // \n        string name;\n        // \n        string category;\n        // \n        string imageLink;\n        // \n        string descLink;\n        // \n        uint256 auctionStartTime;\n        // \n        uint256 auctionEndTime;\n        // \n        uint256 startPrice;\n        // \n        address highestBidder;\n        // \n        uint256 highestBid;\n        // \n        uint256 secondHighestBid;\n        // \n        uint256 totalBids;\n        // \n        ProductStatus status;\n        // \n        mapping(address => mapping(bytes32 => Bid)) bids;\n    }\n\n    // \n    struct Bid {\n        address bidder;\n        uint256 productId;\n        uint256 value;\n        bool revealed;\n    }\n\n\t// \n    event NewProduct(\n        uint256 _productId,\n        string _name,\n        string _category,\n        string _imageLink,\n        string _descLink,\n        uint256 _auctionStartTime,\n        uint256 _auctionEndTime,\n        uint256 _startPrice\n    );\n    \n    // \n    function store(uint256 index_) public {\n        productIndex = index_;\n    }\n\n    //\n    function addProductToStore(\n        string memory _name,\n        string memory _category,\n        string memory _imageLink,\n        string memory _descLink,\n        uint256 _auctionStartTime,\n        uint256 _auctionEndTime,\n        string memory _startPrice\n    ) public {\n        require(_auctionStartTime < _auctionEndTime);\n        productIndex += 1;\n        // msg.sender\n        Product storage product = stores[msg.sender][productIndex];\n        product.id = productIndex;\n        product.name = _name;\n        product.category = _category;\n        product.imageLink = _imageLink;\n        product.descLink = _descLink;\n        product.auctionStartTime = _auctionStartTime;\n        product.auctionEndTime = _auctionEndTime;\n        product.startPrice = stringToUint(_startPrice);\n        product.status = ProductStatus.Open;\n        // ID\n        productIdInStore[productIndex] = msg.sender;\n\t\temit NewProduct(productIndex, _name, _category, _imageLink, _descLink, _auctionStartTime, _auctionEndTime, stringToUint(_startPrice));\n    }\n\n    // \n    function getProduct(uint256 _productId)\n        public\n        view\n        returns (\n            uint256,\n            string memory,\n            string memory,\n            string memory,\n            string memory,\n            uint256,\n            uint256,\n            uint256,\n            ProductStatus\n        )\n    {\n        Product storage product = stores[productIdInStore[_productId]][\n            _productId\n        ];\n        return (\n            product.id,\n            product.name,\n            product.category,\n            product.imageLink,\n            product.descLink,\n            product.auctionStartTime,\n            product.auctionEndTime,\n            product.startPrice,\n            product.status\n        );\n    }\n\n    // \n    function bid(uint256 _productId, bytes32 _bid)\n        public\n        payable\n        returns (bool)\n    {\n        Product storage product = stores[productIdInStore[_productId]][\n            _productId\n        ];\n        require(block.timestamp >= product.auctionStartTime, \">\");\n        require(block.timestamp <= product.auctionEndTime, \"<\");\n        require(msg.value >= product.startPrice, \"=\");\n        require(\n            product.bids[msg.sender][_bid].bidder ==\n                0x0000000000000000000000000000000000000000,\n            \"==\"\n        );\n        product.bids[msg.sender][_bid] = Bid(\n            msg.sender,\n            _productId,\n            msg.value,\n            false\n        );\n        product.totalBids += 1;\n        return true;\n    }\n\n    // \n    function revealBid(\n        uint256 _productId,\n        string memory _amount,\n        string memory _secret\n    ) public {\n        Product storage product = stores[productIdInStore[_productId]][\n            _productId\n        ];\n        require(block.timestamp > product.auctionStartTime);\n        // keccak256\n        bytes32 sealedBid = keccak256(abi.encode(_amount, _secret));\n        Bid memory bidInfo = product.bids[msg.sender][sealedBid];\n        require(bidInfo.bidder > 0x0000000000000000000000000000000000000000);\n        require(bidInfo.revealed == false);\n        // \n        uint256 refund;\n        // \n        uint256 amount = stringToUint(_amount);\n\n        uint256 bidInfov = bidInfo.value;\n        // \n        if (bidInfov < amount) {\n            refund = bidInfov;\n        } else {\n            // \n            if (\n                address(product.highestBidder) ==\n                0x0000000000000000000000000000000000000000\n            ) {\n                product.highestBidder = msg.sender;\n                product.highestBid = amount;\n                product.secondHighestBid = product.startPrice;\n                refund = bidInfov - amount;\n            } else {\n                // \n                if (amount > product.highestBid) {\n                    product.secondHighestBid = product.highestBid;\n                    payable(product.highestBidder).transfer(product.highestBid);\n                    product.highestBidder = msg.sender;\n                    product.highestBid = amount;\n                    refund = bidInfov - amount;\n                } else if (amount > product.secondHighestBid) {\n                    // \n                    product.secondHighestBid = amount;\n                    refund = amount;\n                } else {\n                    // \n                    refund = amount;\n                }\n            }\n        }\n        // \n        product.bids[msg.sender][sealedBid].revealed = true;\n\n        if (refund > 0) {\n            payable(msg.sender).transfer(refund);\n        }\n    }\n\n    // \n    function highestBidderInfo(uint256 _productId)\n        public\n        view\n        returns (\n            address,\n            uint256,\n            uint256\n        )\n    {\n        Product storage product = stores[productIdInStore[_productId]][\n            _productId\n        ];\n        return (\n            product.highestBidder,\n            product.highestBid,\n            product.secondHighestBid\n        );\n    }\n\n    // \n    function totalBids(uint256 _productId) public view returns (uint256) {\n        Product storage product = stores[productIdInStore[_productId]][\n            _productId\n        ];\n        return product.totalBids;\n    }\n\n    // \n    function stringToUint(string memory s) private pure returns (uint256) {\n        bytes memory b = bytes(s);\n        uint256 result = 0;\n        for (uint256 i = 0; i < b.length; i++) {\n            if (uint8(b[i]) >= 48 && uint8(b[i]) <= 57) {\n                result = result * 10 + (uint8(b[i]) - 48);\n            }\n        }\n        return result;\n    }\n\n    function finalizeAuction(uint256 _productId) public {\n        Product storage product = stores[productIdInStore[_productId]][\n            _productId\n        ];\n        // 48 hours to reveal the bid\n        require(block.timestamp > product.auctionEndTime, \"Bad Time\");\n        require(product.status == ProductStatus.Open, \"Bad Status\");\n        require(product.highestBidder != msg.sender, \"Bad highestBidder\");\n        require(productIdInStore[_productId] != msg.sender, \"Bad productIdInStore[_productId]\");\n\n        if (\n            product.highestBidder == 0x0000000000000000000000000000000000000000\n        ) {\n            product.status = ProductStatus.Unsold;\n        } else {\n            // Whoever finalizes the auction is the arbiter\n            Escrow escrow = (new Escrow){value: product.secondHighestBid}(\n                _productId,\n                product.highestBidder,\n                productIdInStore[_productId],\n                msg.sender\n            );\n            productEscrow[_productId] = address(escrow);\n            product.status = ProductStatus.Sold;\n            // The bidder only pays the amount equivalent to second highest bidder\n            // Refund the difference\n            uint256 refund = product.highestBid - product.secondHighestBid;\n            payable(product.highestBidder).transfer(refund);\n            changeAssetOwner(product.imageLink, productIdInStore[_productId], product.highestBidder);\n        }\n    }\n\n    function escrowAddressForProduct(uint256 _productId)\n        public\n        view\n        returns (address)\n    {\n        return productEscrow[_productId];\n    }\n\n    function escrowInfo(uint256 _productId)\n        public\n        view\n        returns (\n            address,\n            address,\n            address,\n            bool,\n            uint256,\n            uint256\n        )\n    {\n        return Escrow(productEscrow[_productId]).escrowInfo();\n    }\n\n    function releaseAmountToSeller(uint256 _productId) public {\n        Escrow(productEscrow[_productId]).releaseAmountToSeller(msg.sender);\n    }\n\n    function refundAmountToBuyer(uint256 _productId) public {\n        Escrow(productEscrow[_productId]).refundAmountToBuyer(msg.sender);\n    }\n\n    // \n    function keccak(string memory _amount, string memory _secret)\n        public\n        pure\n        returns (bytes32)\n    {\n        bytes32 _bid = keccak256(abi.encode(_amount, _secret));\n        return _bid;\n    }\n}\n",
  "sourcePath": "D:\\codes\\hku_Final\\ebay-truffle-auction\\contracts\\EcommerceStore.sol",
  "compiler": {
    "name": "solc",
    "version": "0.8.17+commit.8df45f5f.Emscripten.clang"
  },
  "schemaVersion": "3.4.11",
  "updatedAt": "2024-07-08T03:37:11.205Z",
  "networkType": "ethereum",
  "devdoc": {
    "kind": "dev",
    "methods": {},
    "version": 1
  },
  "userdoc": {
    "kind": "user",
    "methods": {},
    "version": 1
  }
}