{
  "contractName": "EcommerceStore",
  "abi": [
    {
      "anonymous": false,
      "inputs": [
        {
          "indexed": true,
          "internalType": "address",
          "name": "owner",
          "type": "address"
        },
        {
          "indexed": false,
          "internalType": "string",
          "name": "imageId",
          "type": "string"
        },
        {
          "indexed": false,
          "internalType": "string",
          "name": "name",
          "type": "string"
        },
        {
          "indexed": false,
          "internalType": "uint256",
          "name": "creationTime",
          "type": "uint256"
        }
      ],
      "name": "AssetAdded",
      "type": "event"
    },
    {
      "anonymous": false,
      "inputs": [
        {
          "indexed": true,
          "internalType": "address",
          "name": "from",
          "type": "address"
        },
        {
          "indexed": true,
          "internalType": "address",
          "name": "to",
          "type": "address"
        },
        {
          "indexed": false,
          "internalType": "string",
          "name": "imageId",
          "type": "string"
        }
      ],
      "name": "AssetTransferred",
      "type": "event"
    },
    {
      "anonymous": false,
      "inputs": [
        {
          "indexed": false,
          "internalType": "uint256",
          "name": "_productId",
          "type": "uint256"
        },
        {
          "indexed": false,
          "internalType": "string",
          "name": "_name",
          "type": "string"
        },
        {
          "indexed": false,
          "internalType": "string",
          "name": "_category",
          "type": "string"
        },
        {
          "indexed": false,
          "internalType": "string",
          "name": "_imageId",
          "type": "string"
        },
        {
          "indexed": false,
          "internalType": "string",
          "name": "_descLink",
          "type": "string"
        },
        {
          "indexed": false,
          "internalType": "uint256",
          "name": "_auctionStartTime",
          "type": "uint256"
        },
        {
          "indexed": false,
          "internalType": "uint256",
          "name": "_auctionEndTime",
          "type": "uint256"
        },
        {
          "indexed": false,
          "internalType": "uint256",
          "name": "_startPrice",
          "type": "uint256"
        }
      ],
      "name": "NewProduct",
      "type": "event"
    },
    {
      "anonymous": false,
      "inputs": [
        {
          "indexed": false,
          "internalType": "string",
          "name": "imageId",
          "type": "string"
        },
        {
          "indexed": false,
          "internalType": "enum AssetManager.SaleStatus",
          "name": "status",
          "type": "uint8"
        }
      ],
      "name": "SaleStatusChanged",
      "type": "event"
    },
    {
      "inputs": [
        {
          "internalType": "string",
          "name": "_imageId",
          "type": "string"
        },
        {
          "internalType": "string",
          "name": "_name",
          "type": "string"
        }
      ],
      "name": "addAsset",
      "outputs": [],
      "stateMutability": "nonpayable",
      "type": "function"
    },
    {
      "inputs": [
        {
          "internalType": "string",
          "name": "_imageId",
          "type": "string"
        }
      ],
      "name": "getAssetCreationTime",
      "outputs": [
        {
          "internalType": "uint256",
          "name": "",
          "type": "uint256"
        }
      ],
      "stateMutability": "view",
      "type": "function",
      "constant": true
    },
    {
      "inputs": [
        {
          "internalType": "string",
          "name": "_imageId",
          "type": "string"
        }
      ],
      "name": "getAssetName",
      "outputs": [
        {
          "internalType": "string",
          "name": "",
          "type": "string"
        }
      ],
      "stateMutability": "view",
      "type": "function",
      "constant": true
    },
    {
      "inputs": [
        {
          "internalType": "address",
          "name": "_user",
          "type": "address"
        }
      ],
      "name": "getAssets",
      "outputs": [
        {
          "internalType": "string[]",
          "name": "",
          "type": "string[]"
        }
      ],
      "stateMutability": "view",
      "type": "function",
      "constant": true
    },
    {
      "inputs": [
        {
          "internalType": "string",
          "name": "_imageId",
          "type": "string"
        }
      ],
      "name": "getSaleStatus",
      "outputs": [
        {
          "internalType": "enum AssetManager.SaleStatus",
          "name": "",
          "type": "uint8"
        }
      ],
      "stateMutability": "view",
      "type": "function",
      "constant": true
    },
    {
      "inputs": [
        {
          "internalType": "string",
          "name": "_imageId",
          "type": "string"
        }
      ],
      "name": "getUser",
      "outputs": [
        {
          "internalType": "address",
          "name": "",
          "type": "address"
        }
      ],
      "stateMutability": "view",
      "type": "function",
      "constant": true
    },
    {
      "inputs": [],
      "name": "productIndex",
      "outputs": [
        {
          "internalType": "uint256",
          "name": "",
          "type": "uint256"
        }
      ],
      "stateMutability": "view",
      "type": "function",
      "constant": true
    },
    {
      "inputs": [
        {
          "internalType": "string",
          "name": "_imageId",
          "type": "string"
        }
      ],
      "name": "setAssetNotSelling",
      "outputs": [],
      "stateMutability": "nonpayable",
      "type": "function"
    },
    {
      "inputs": [
        {
          "internalType": "string",
          "name": "_imageId",
          "type": "string"
        }
      ],
      "name": "setAssetSelling",
      "outputs": [],
      "stateMutability": "nonpayable",
      "type": "function"
    },
    {
      "inputs": [
        {
          "internalType": "uint256",
          "name": "index_",
          "type": "uint256"
        }
      ],
      "name": "store",
      "outputs": [],
      "stateMutability": "nonpayable",
      "type": "function"
    },
    {
      "inputs": [
        {
          "internalType": "string",
          "name": "_name",
          "type": "string"
        },
        {
          "internalType": "string",
          "name": "_category",
          "type": "string"
        },
        {
          "internalType": "string",
          "name": "_imageId",
          "type": "string"
        },
        {
          "internalType": "string",
          "name": "_descLink",
          "type": "string"
        },
        {
          "internalType": "uint256",
          "name": "_auctionStartTime",
          "type": "uint256"
        },
        {
          "internalType": "uint256",
          "name": "_auctionEndTime",
          "type": "uint256"
        },
        {
          "internalType": "string",
          "name": "_startPrice",
          "type": "string"
        }
      ],
      "name": "addProductToStore",
      "outputs": [],
      "stateMutability": "nonpayable",
      "type": "function"
    },
    {
      "inputs": [
        {
          "internalType": "uint256",
          "name": "_productId",
          "type": "uint256"
        }
      ],
      "name": "getProduct",
      "outputs": [
        {
          "internalType": "uint256",
          "name": "",
          "type": "uint256"
        },
        {
          "internalType": "string",
          "name": "",
          "type": "string"
        },
        {
          "internalType": "string",
          "name": "",
          "type": "string"
        },
        {
          "internalType": "string",
          "name": "",
          "type": "string"
        },
        {
          "internalType": "string",
          "name": "",
          "type": "string"
        },
        {
          "internalType": "uint256",
          "name": "",
          "type": "uint256"
        },
        {
          "internalType": "uint256",
          "name": "",
          "type": "uint256"
        },
        {
          "internalType": "uint256",
          "name": "",
          "type": "uint256"
        },
        {
          "internalType": "enum EcommerceStore.ProductStatus",
          "name": "",
          "type": "uint8"
        }
      ],
      "stateMutability": "view",
      "type": "function",
      "constant": true
    },
    {
      "inputs": [
        {
          "internalType": "uint256",
          "name": "_productId",
          "type": "uint256"
        },
        {
          "internalType": "bytes32",
          "name": "_bid",
          "type": "bytes32"
        }
      ],
      "name": "bid",
      "outputs": [
        {
          "internalType": "bool",
          "name": "",
          "type": "bool"
        }
      ],
      "stateMutability": "payable",
      "type": "function",
      "payable": true
    },
    {
      "inputs": [
        {
          "internalType": "uint256",
          "name": "_productId",
          "type": "uint256"
        },
        {
          "internalType": "string",
          "name": "_amount",
          "type": "string"
        },
        {
          "internalType": "string",
          "name": "_secret",
          "type": "string"
        }
      ],
      "name": "revealBid",
      "outputs": [],
      "stateMutability": "nonpayable",
      "type": "function"
    },
    {
      "inputs": [
        {
          "internalType": "uint256",
          "name": "_productId",
          "type": "uint256"
        }
      ],
      "name": "highestBidderInfo",
      "outputs": [
        {
          "internalType": "address",
          "name": "",
          "type": "address"
        },
        {
          "internalType": "uint256",
          "name": "",
          "type": "uint256"
        },
        {
          "internalType": "uint256",
          "name": "",
          "type": "uint256"
        }
      ],
      "stateMutability": "view",
      "type": "function",
      "constant": true
    },
    {
      "inputs": [
        {
          "internalType": "uint256",
          "name": "_productId",
          "type": "uint256"
        }
      ],
      "name": "totalBids",
      "outputs": [
        {
          "internalType": "uint256",
          "name": "",
          "type": "uint256"
        }
      ],
      "stateMutability": "view",
      "type": "function",
      "constant": true
    },
    {
      "inputs": [
        {
          "internalType": "uint256",
          "name": "_productId",
          "type": "uint256"
        }
      ],
      "name": "finalizeAuction",
      "outputs": [],
      "stateMutability": "nonpayable",
      "type": "function"
    },
    {
      "inputs": [
        {
          "internalType": "uint256",
          "name": "_productId",
          "type": "uint256"
        }
      ],
      "name": "escrowAddressForProduct",
      "outputs": [
        {
          "internalType": "address",
          "name": "",
          "type": "address"
        }
      ],
      "stateMutability": "view",
      "type": "function",
      "constant": true
    },
    {
      "inputs": [
        {
          "internalType": "uint256",
          "name": "_productId",
          "type": "uint256"
        }
      ],
      "name": "escrowInfo",
      "outputs": [
        {
          "internalType": "address",
          "name": "",
          "type": "address"
        },
        {
          "internalType": "address",
          "name": "",
          "type": "address"
        },
        {
          "internalType": "address",
          "name": "",
          "type": "address"
        },
        {
          "internalType": "bool",
          "name": "",
          "type": "bool"
        },
        {
          "internalType": "uint256",
          "name": "",
          "type": "uint256"
        },
        {
          "internalType": "uint256",
          "name": "",
          "type": "uint256"
        }
      ],
      "stateMutability": "view",
      "type": "function",
      "constant": true
    },
    {
      "inputs": [
        {
          "internalType": "uint256",
          "name": "_productId",
          "type": "uint256"
        }
      ],
      "name": "releaseAmountToSeller",
      "outputs": [],
      "stateMutability": "nonpayable",
      "type": "function"
    },
    {
      "inputs": [
        {
          "internalType": "uint256",
          "name": "_productId",
          "type": "uint256"
        }
      ],
      "name": "refundAmountToBuyer",
      "outputs": [],
      "stateMutability": "nonpayable",
      "type": "function"
    },
    {
      "inputs": [
        {
          "internalType": "string",
          "name": "_amount",
          "type": "string"
        },
        {
          "internalType": "string",
          "name": "_secret",
          "type": "string"
        }
      ],
      "name": "keccak",
      "outputs": [
        {
          "internalType": "bytes32",
          "name": "",
          "type": "bytes32"
        }
      ],
      "stateMutability": "pure",
      "type": "function",
      "constant": true
    }
  ],
  "bytecode": "0x608060405234801561001057600080fd5b50615503806100206000396000f3fe608060405260043610620001525760003560e01c80638356052511620000bb578063cc352db71162000079578063cc352db7146200050c578063ce818ea9146200053a578063e80838631462000580578063ea1591bb14620005ae578063f0d10d0114620005e4578063f85f196e14620006285762000152565b80638356052514620003eb5780639a3a7c691462000434578063b9db15b41462000462578063c04fc37e14620004ae578063c897d5a614620004dc5762000152565b80634389754a11620001155780634389754a146200027f5780634f44868414620002c3578063553289d814620002f15780636057361d1462000335578063742978da14620003635780637c732f5314620003a75762000152565b80631ba4153d146200015757806328e3d190146200019b5780632c404ca514620001df57806331feb671146200020d57806337410dfa1462000251575b600080fd5b3480156200016457600080fd5b506200018360048036038101906200017d919062002bc5565b62000656565b60405162000192919062002c9f565b60405180910390f35b348015620001a857600080fd5b50620001c76004803603810190620001c1919062002cfe565b62000713565b604051620001d6919062002d41565b60405180910390f35b348015620001ec57600080fd5b506200020b600480360381019062000205919062002bc5565b620007a8565b005b3480156200021a57600080fd5b5062000239600480360381019062000233919062002bc5565b62000836565b60405162000248919062002da3565b60405180910390f35b3480156200025e57600080fd5b506200027d600480360381019062000277919062002dc0565b62000882565b005b3480156200028c57600080fd5b50620002ab6004803603810190620002a5919062002cfe565b62000b56565b604051620002ba919062002da3565b60405180910390f35b348015620002d057600080fd5b50620002ef6004803603810190620002e9919062002bc5565b62000b93565b005b348015620002fe57600080fd5b506200031d600480360381019062000317919062002bc5565b62000c20565b6040516200032c919062002d41565b60405180910390f35b3480156200034257600080fd5b506200036160048036038101906200035b919062002cfe565b62000c4c565b005b3480156200037057600080fd5b506200038f600480360381019062000389919062002e76565b62000c56565b6040516200039e919062002fca565b60405180910390f35b348015620003b457600080fd5b50620003d36004803603810190620003cd919062002bc5565b62000d78565b604051620003e291906200306e565b60405180910390f35b348015620003f857600080fd5b5062000417600480360381019062000411919062002cfe565b62000db1565b6040516200042b96959493929190620030a8565b60405180910390f35b3480156200044157600080fd5b506200046060048036038101906200045a919062002cfe565b62000e74565b005b3480156200046f57600080fd5b506200048e600480360381019062000488919062002cfe565b62000f19565b604051620004a59998979695949392919062003166565b60405180910390f35b348015620004bb57600080fd5b50620004da6004803603810190620004d4919062003221565b62001254565b005b348015620004e957600080fd5b50620004f46200143f565b60405162000503919062002d41565b60405180910390f35b3480156200051957600080fd5b5062000538600480360381019062000532919062002cfe565b62001445565b005b3480156200054757600080fd5b5062000566600480360381019062000560919062002cfe565b620014ea565b60405162000577939291906200336f565b60405180910390f35b3480156200058d57600080fd5b50620005ac6004803603810190620005a6919062002cfe565b620015b2565b005b620005cc6004803603810190620005c69190620033e7565b62001cb0565b604051620005db91906200342e565b60405180910390f35b348015620005f157600080fd5b506200061060048036038101906200060a919062002dc0565b62002030565b6040516200061f91906200345c565b60405180910390f35b3480156200063557600080fd5b506200065460048036038101906200064e919062003479565b6200206a565b005b60606000826040516200066a919062003555565b9081526020016040518091039020600001805462000688906200359d565b80601f0160208091040260200160405190810160405280929190818152602001828054620006b6906200359d565b8015620007075780601f10620006db5761010080835404028352916020019162000707565b820191906000526020600020905b815481529060010190602001808311620006e957829003601f168201915b50505050509050919050565b600080600360006004600086815260200190815260200160002060009054906101000a900473ffffffffffffffffffffffffffffffffffffffff1673ffffffffffffffffffffffffffffffffffffffff1673ffffffffffffffffffffffffffffffffffffffff1681526020019081526020016000206000848152602001908152602001600020905080600b0154915050919050565b6001600082604051620007bc919062003555565b908152602001604051809103902060020160146101000a81548160ff02191690836001811115620007f257620007f162002fee565b5b02179055507f67ea2c93d8c90ed30cc8598ec6ebd0a78beafd1d660fee89f598f7d97674c5788160016040516200082b929190620035d2565b60405180910390a150565b6000808260405162000849919062003555565b908152602001604051809103902060020160009054906101000a900473ffffffffffffffffffffffffffffffffffffffff169050919050565b6000825111620008c9576040517f08c379a0000000000000000000000000000000000000000000000000000000008152600401620008c09062003656565b60405180910390fd5b600081511162000910576040517f08c379a00000000000000000000000000000000000000000000000000000000081526004016200090790620036c8565b60405180910390fd5b6000808360405162000923919062003555565b9081526020016040518091039020600101541462000978576040517f08c379a00000000000000000000000000000000000000000000000000000000081526004016200096f906200373a565b60405180910390fd5b600060405180608001604052808381526020014281526020013373ffffffffffffffffffffffffffffffffffffffff16815260200160006001811115620009c457620009c362002fee565b5b815250905080600084604051620009dc919062003555565b9081526020016040518091039020600082015181600001908162000a0191906200392e565b506020820151816001015560408201518160020160006101000a81548173ffffffffffffffffffffffffffffffffffffffff021916908373ffffffffffffffffffffffffffffffffffffffff16021790555060608201518160020160146101000a81548160ff0219169083600181111562000a815762000a8062002fee565b5b0217905550905050600160003373ffffffffffffffffffffffffffffffffffffffff1673ffffffffffffffffffffffffffffffffffffffff1681526020019081526020016000208390806001815401808255809150506001900390600052602060002001600090919091909150908162000afc91906200392e565b503373ffffffffffffffffffffffffffffffffffffffff167f0cfe236a9632ec5d35ac0ea4f44b2d0e800e40ef84a2ac34ac2d152439b9937584844260405162000b499392919062003a15565b60405180910390a2505050565b60006005600083815260200190815260200160002060009054906101000a900473ffffffffffffffffffffffffffffffffffffffff169050919050565b6000808260405162000ba6919062003555565b908152602001604051809103902060020160146101000a81548160ff0219169083600181111562000bdc5762000bdb62002fee565b5b02179055507f67ea2c93d8c90ed30cc8598ec6ebd0a78beafd1d660fee89f598f7d97674c57881600060405162000c15929190620035d2565b60405180910390a150565b6000808260405162000c33919062003555565b9081526020016040518091039020600101549050919050565b8060028190555050565b6060600160008373ffffffffffffffffffffffffffffffffffffffff1673ffffffffffffffffffffffffffffffffffffffff168152602001908152602001600020805480602002602001604051908101604052809291908181526020016000905b8282101562000d6d57838290600052602060002001805462000cd9906200359d565b80601f016020809104026020016040519081016040528092919081815260200182805462000d07906200359d565b801562000d585780601f1062000d2c5761010080835404028352916020019162000d58565b820191906000526020600020905b81548152906001019060200180831162000d3a57829003601f168201915b50505050508152602001906001019062000cb7565b505050509050919050565b6000808260405162000d8b919062003555565b908152602001604051809103902060020160149054906101000a900460ff169050919050565b6000806000806000806005600088815260200190815260200160002060009054906101000a900473ffffffffffffffffffffffffffffffffffffffff1673ffffffffffffffffffffffffffffffffffffffff1663f3d259046040518163ffffffff1660e01b815260040160c060405180830381865afa15801562000e39573d6000803e3d6000fd5b505050506040513d601f19601f8201168201806040525081019062000e5f919062003abf565b95509550955095509550955091939550919395565b6005600082815260200190815260200160002060009054906101000a900473ffffffffffffffffffffffffffffffffffffffff1673ffffffffffffffffffffffffffffffffffffffff166358aad10b336040518263ffffffff1660e01b815260040162000ee2919062002da3565b600060405180830381600087803b15801562000efd57600080fd5b505af115801562000f12573d6000803e3d6000fd5b5050505050565b6000606080606080600080600080600060036000600460008e815260200190815260200160002060009054906101000a900473ffffffffffffffffffffffffffffffffffffffff1673ffffffffffffffffffffffffffffffffffffffff1673ffffffffffffffffffffffffffffffffffffffff16815260200190815260200160002060008c8152602001908152602001600020905080600001548160020182600301836001018460040185600501548660060154876007015488600c0160009054906101000a900460ff1687805462000ff2906200359d565b80601f016020809104026020016040519081016040528092919081815260200182805462001020906200359d565b8015620010715780601f10620010455761010080835404028352916020019162001071565b820191906000526020600020905b8154815290600101906020018083116200105357829003601f168201915b5050505050975086805462001086906200359d565b80601f0160208091040260200160405190810160405280929190818152602001828054620010b4906200359d565b8015620011055780601f10620010d95761010080835404028352916020019162001105565b820191906000526020600020905b815481529060010190602001808311620010e757829003601f168201915b505050505096508580546200111a906200359d565b80601f016020809104026020016040519081016040528092919081815260200182805462001148906200359d565b8015620011995780601f106200116d5761010080835404028352916020019162001199565b820191906000526020600020905b8154815290600101906020018083116200117b57829003601f168201915b50505050509550848054620011ae906200359d565b80601f0160208091040260200160405190810160405280929190818152602001828054620011dc906200359d565b80156200122d5780601f1062001201576101008083540402835291602001916200122d565b820191906000526020600020905b8154815290600101906020018083116200120f57829003601f168201915b50505050509450995099509950995099509950995099509950509193959799909294969850565b8183106200126157600080fd5b60016002600082825462001276919062003b8a565b925050819055506000600360003373ffffffffffffffffffffffffffffffffffffffff1673ffffffffffffffffffffffffffffffffffffffff168152602001908152602001600020600060025481526020019081526020016000209050600254816000018190555087816002019081620012f191906200392e565b50868160030190816200130591906200392e565b50858160010190816200131991906200392e565b50848160040190816200132d91906200392e565b508381600501819055508281600601819055506200134b826200253c565b8160070181905550600081600c0160006101000a81548160ff021916908360028111156200137e576200137d62002fee565b5b02179055506200138e86620007a8565b3360046000600254815260200190815260200160002060006101000a81548173ffffffffffffffffffffffffffffffffffffffff021916908373ffffffffffffffffffffffffffffffffffffffff1602179055507fd952ab5034808c75d7ae7c37cf56ef07be795c8c8d212578af61c43f81b5b2b8600254898989898989620014178a6200253c565b6040516200142d98979695949392919062003bc5565b60405180910390a15050505050505050565b60025481565b6005600082815260200190815260200160002060009054906101000a900473ffffffffffffffffffffffffffffffffffffffff1673ffffffffffffffffffffffffffffffffffffffff1663a97d1b10336040518263ffffffff1660e01b8152600401620014b3919062002da3565b600060405180830381600087803b158015620014ce57600080fd5b505af1158015620014e3573d6000803e3d6000fd5b5050505050565b600080600080600360006004600088815260200190815260200160002060009054906101000a900473ffffffffffffffffffffffffffffffffffffffff1673ffffffffffffffffffffffffffffffffffffffff1673ffffffffffffffffffffffffffffffffffffffff168152602001908152602001600020600086815260200190815260200160002090508060080160009054906101000a900473ffffffffffffffffffffffffffffffffffffffff16816009015482600a0154935093509350509193909250565b6000600360006004600085815260200190815260200160002060009054906101000a900473ffffffffffffffffffffffffffffffffffffffff1673ffffffffffffffffffffffffffffffffffffffff1673ffffffffffffffffffffffffffffffffffffffff168152602001908152602001600020600083815260200190815260200160002090508060060154421162001682576040517f08c379a0000000000000000000000000000000000000000000000000000000008152600401620016799062003cbf565b60405180910390fd5b6000600281111562001699576200169862002fee565b5b81600c0160009054906101000a900460ff166002811115620016c057620016bf62002fee565b5b1462001703576040517f08c379a0000000000000000000000000000000000000000000000000000000008152600401620016fa9062003d31565b60405180910390fd5b3373ffffffffffffffffffffffffffffffffffffffff168160080160009054906101000a900473ffffffffffffffffffffffffffffffffffffffff1673ffffffffffffffffffffffffffffffffffffffff160362001798576040517f08c379a00000000000000000000000000000000000000000000000000000000081526004016200178f9062003da3565b60405180910390fd5b3373ffffffffffffffffffffffffffffffffffffffff166004600084815260200190815260200160002060009054906101000a900473ffffffffffffffffffffffffffffffffffffffff1673ffffffffffffffffffffffffffffffffffffffff16036200183c576040517f08c379a0000000000000000000000000000000000000000000000000000000008152600401620018339062003e15565b60405180910390fd5b600073ffffffffffffffffffffffffffffffffffffffff168160080160009054906101000a900473ffffffffffffffffffffffffffffffffffffffff1673ffffffffffffffffffffffffffffffffffffffff16036200196a57600281600c0160006101000a81548160ff02191690836002811115620018c057620018bf62002fee565b5b021790555062001964816001018054620018da906200359d565b80601f016020809104026020016040519081016040528092919081815260200182805462001908906200359d565b8015620019595780601f106200192d5761010080835404028352916020019162001959565b820191906000526020600020905b8154815290600101906020018083116200193b57829003601f168201915b505050505062000b93565b62001cac565b600081600a0154838360080160009054906101000a900473ffffffffffffffffffffffffffffffffffffffff166004600087815260200190815260200160002060009054906101000a900473ffffffffffffffffffffffffffffffffffffffff1633604051620019da90620029dc565b620019e9949392919062003e37565b6040518091039082f090508015801562001a07573d6000803e3d6000fd5b509050806005600085815260200190815260200160002060006101000a81548173ffffffffffffffffffffffffffffffffffffffff021916908373ffffffffffffffffffffffffffffffffffffffff160217905550600182600c0160006101000a81548160ff0219169083600281111562001a875762001a8662002fee565b5b021790555062001b2b82600101805462001aa1906200359d565b80601f016020809104026020016040519081016040528092919081815260200182805462001acf906200359d565b801562001b205780601f1062001af45761010080835404028352916020019162001b20565b820191906000526020600020905b81548152906001019060200180831162001b0257829003601f168201915b505050505062000b93565b600082600a0154836009015462001b43919062003e84565b90508260080160009054906101000a900473ffffffffffffffffffffffffffffffffffffffff1673ffffffffffffffffffffffffffffffffffffffff166108fc829081150290604051600060405180830381858888f1935050505015801562001bb0573d6000803e3d6000fd5b5062001ca983600101805462001bc6906200359d565b80601f016020809104026020016040519081016040528092919081815260200182805462001bf4906200359d565b801562001c455780601f1062001c195761010080835404028352916020019162001c45565b820191906000526020600020905b81548152906001019060200180831162001c2757829003601f168201915b50505050506004600087815260200190815260200160002060009054906101000a900473ffffffffffffffffffffffffffffffffffffffff168560080160009054906101000a900473ffffffffffffffffffffffffffffffffffffffff1662002629565b50505b5050565b600080600360006004600087815260200190815260200160002060009054906101000a900473ffffffffffffffffffffffffffffffffffffffff1673ffffffffffffffffffffffffffffffffffffffff1673ffffffffffffffffffffffffffffffffffffffff16815260200190815260200160002060008581526020019081526020016000209050806005015442101562001d82576040517f08c379a000000000000000000000000000000000000000000000000000000000815260040162001d799062003f0f565b60405180910390fd5b806006015442111562001dcc576040517f08c379a000000000000000000000000000000000000000000000000000000000815260040162001dc39062003f81565b60405180910390fd5b806007015434101562001e16576040517f08c379a000000000000000000000000000000000000000000000000000000000815260040162001e0d9062003ff3565b60405180910390fd5b600073ffffffffffffffffffffffffffffffffffffffff1681600d0160003373ffffffffffffffffffffffffffffffffffffffff1673ffffffffffffffffffffffffffffffffffffffff168152602001908152602001600020600085815260200190815260200160002060000160009054906101000a900473ffffffffffffffffffffffffffffffffffffffff1673ffffffffffffffffffffffffffffffffffffffff161462001efd576040517f08c379a000000000000000000000000000000000000000000000000000000000815260040162001ef49062004065565b60405180910390fd5b60405180608001604052803373ffffffffffffffffffffffffffffffffffffffff1681526020018581526020013481526020016000151581525081600d0160003373ffffffffffffffffffffffffffffffffffffffff1673ffffffffffffffffffffffffffffffffffffffff168152602001908152602001600020600085815260200190815260200160002060008201518160000160006101000a81548173ffffffffffffffffffffffffffffffffffffffff021916908373ffffffffffffffffffffffffffffffffffffffff160217905550602082015181600101556040820151816002015560608201518160030160006101000a81548160ff021916908315150217905550905050600181600b0160008282546200201e919062003b8a565b92505081905550600191505092915050565b60008083836040516020016200204892919062004087565b6040516020818303038152906040528051906020012090508091505092915050565b6000600360006004600087815260200190815260200160002060009054906101000a900473ffffffffffffffffffffffffffffffffffffffff1673ffffffffffffffffffffffffffffffffffffffff1673ffffffffffffffffffffffffffffffffffffffff16815260200190815260200160002060008581526020019081526020016000209050806005015442116200210257600080fd5b600083836040516020016200211992919062004087565b604051602081830303815290604052805190602001209050600082600d0160003373ffffffffffffffffffffffffffffffffffffffff1673ffffffffffffffffffffffffffffffffffffffff16815260200190815260200160002060008381526020019081526020016000206040518060800160405290816000820160009054906101000a900473ffffffffffffffffffffffffffffffffffffffff1673ffffffffffffffffffffffffffffffffffffffff1673ffffffffffffffffffffffffffffffffffffffff16815260200160018201548152602001600282015481526020016003820160009054906101000a900460ff1615151515815250509050600073ffffffffffffffffffffffffffffffffffffffff16816000015173ffffffffffffffffffffffffffffffffffffffff16116200225557600080fd5b6000151581606001511515146200226b57600080fd5b60008062002279876200253c565b905060008360400151905081811015620022965780925062002470565b600073ffffffffffffffffffffffffffffffffffffffff168660080160009054906101000a900473ffffffffffffffffffffffffffffffffffffffff1673ffffffffffffffffffffffffffffffffffffffff16036200235e57338660080160006101000a81548173ffffffffffffffffffffffffffffffffffffffff021916908373ffffffffffffffffffffffffffffffffffffffff160217905550818660090181905550856007015486600a0181905550818162002356919062003e84565b92506200246f565b85600901548211156200244a57856009015486600a01819055508560080160009054906101000a900473ffffffffffffffffffffffffffffffffffffffff1673ffffffffffffffffffffffffffffffffffffffff166108fc87600901549081150290604051600060405180830381858888f19350505050158015620023e7573d6000803e3d6000fd5b50338660080160006101000a81548173ffffffffffffffffffffffffffffffffffffffff021916908373ffffffffffffffffffffffffffffffffffffffff160217905550818660090181905550818162002442919062003e84565b92506200246e565b85600a015482111562002469578186600a01819055508192506200246d565b8192505b5b5b5b600186600d0160003373ffffffffffffffffffffffffffffffffffffffff1673ffffffffffffffffffffffffffffffffffffffff168152602001908152602001600020600087815260200190815260200160002060030160006101000a81548160ff021916908315150217905550600083111562002531573373ffffffffffffffffffffffffffffffffffffffff166108fc849081150290604051600060405180830381858888f193505050501580156200252f573d6000803e3d6000fd5b505b505050505050505050565b6000808290506000805b82518110156200261e576030838281518110620025685762002567620040c2565b5b602001015160f81c60f81b60f81c60ff1610158015620025af575060398382815181106200259b576200259a620040c2565b5b602001015160f81c60f81b60f81c60ff1611155b1562002608576030838281518110620025cd57620025cc620040c2565b5b602001015160f81c60f81b60f81c620025e79190620040fe565b60ff16600a83620025f991906200413a565b62002605919062003b8a565b91505b8080620026159062004185565b91505062002546565b508092505050919050565b600073ffffffffffffffffffffffffffffffffffffffff168173ffffffffffffffffffffffffffffffffffffffff16036200269b576040517f08c379a0000000000000000000000000000000000000000000000000000000008152600401620026929062004222565b60405180910390fd5b8173ffffffffffffffffffffffffffffffffffffffff16600084604051620026c4919062003555565b908152602001604051809103902060020160009054906101000a900473ffffffffffffffffffffffffffffffffffffffff1673ffffffffffffffffffffffffffffffffffffffff16146200274f576040517f08c379a00000000000000000000000000000000000000000000000000000000081526004016200274690620042ba565b60405180910390fd5b6000600160008473ffffffffffffffffffffffffffffffffffffffff1673ffffffffffffffffffffffffffffffffffffffff168152602001908152602001600020905060005b818054905081101562002898578480519060200120828281548110620027c057620027bf620040c2565b5b90600052602060002001604051620027d991906200438b565b60405180910390200362002882578160018380549050620027fb919062003e84565b815481106200280f576200280e620040c2565b5b906000526020600020018282815481106200282f576200282e620040c2565b5b906000526020600020019081620028479190620043d1565b50818054806200285c576200285b620044d2565b5b6001900381819060005260206000200160006200287a9190620029ea565b905562002898565b80806200288f9062004185565b91505062002795565b50600160008373ffffffffffffffffffffffffffffffffffffffff1673ffffffffffffffffffffffffffffffffffffffff168152602001908152602001600020849080600181540180825580915050600190039060005260206000200160009091909190915090816200290c91906200392e565b508160008560405162002920919062003555565b908152602001604051809103902060020160006101000a81548173ffffffffffffffffffffffffffffffffffffffff021916908373ffffffffffffffffffffffffffffffffffffffff1602179055508173ffffffffffffffffffffffffffffffffffffffff168373ffffffffffffffffffffffffffffffffffffffff167f653bc42abb4e9566e224482c8ed6335fd3dddb14b7b25a3adc5461870b4bc46386604051620029ce919062002c9f565b60405180910390a350505050565b610fcc806200450283390190565b508054620029f8906200359d565b6000825580601f1062002a0c575062002a2d565b601f01602090049060005260206000209081019062002a2c919062002a30565b5b50565b5b8082111562002a4b57600081600090555060010162002a31565b5090565b6000604051905090565b600080fd5b600080fd5b600080fd5b600080fd5b6000601f19601f8301169050919050565b7f4e487b7100000000000000000000000000000000000000000000000000000000600052604160045260246000fd5b62002ab88262002a6d565b810181811067ffffffffffffffff8211171562002ada5762002ad962002a7e565b5b80604052505050565b600062002aef62002a4f565b905062002afd828262002aad565b919050565b600067ffffffffffffffff82111562002b205762002b1f62002a7e565b5b62002b2b8262002a6d565b9050602081019050919050565b82818337600083830152505050565b600062002b5e62002b588462002b02565b62002ae3565b90508281526020810184848401111562002b7d5762002b7c62002a68565b5b62002b8a84828562002b38565b509392505050565b600082601f83011262002baa5762002ba962002a63565b5b813562002bbc84826020860162002b47565b91505092915050565b60006020828403121562002bde5762002bdd62002a59565b5b600082013567ffffffffffffffff81111562002bff5762002bfe62002a5e565b5b62002c0d8482850162002b92565b91505092915050565b600081519050919050565b600082825260208201905092915050565b60005b8381101562002c5257808201518184015260208101905062002c35565b60008484015250505050565b600062002c6b8262002c16565b62002c77818562002c21565b935062002c8981856020860162002c32565b62002c948162002a6d565b840191505092915050565b6000602082019050818103600083015262002cbb818462002c5e565b905092915050565b6000819050919050565b62002cd88162002cc3565b811462002ce457600080fd5b50565b60008135905062002cf88162002ccd565b92915050565b60006020828403121562002d175762002d1662002a59565b5b600062002d278482850162002ce7565b91505092915050565b62002d3b8162002cc3565b82525050565b600060208201905062002d58600083018462002d30565b92915050565b600073ffffffffffffffffffffffffffffffffffffffff82169050919050565b600062002d8b8262002d5e565b9050919050565b62002d9d8162002d7e565b82525050565b600060208201905062002dba600083018462002d92565b92915050565b6000806040838503121562002dda5762002dd962002a59565b5b600083013567ffffffffffffffff81111562002dfb5762002dfa62002a5e565b5b62002e098582860162002b92565b925050602083013567ffffffffffffffff81111562002e2d5762002e2c62002a5e565b5b62002e3b8582860162002b92565b9150509250929050565b62002e508162002d7e565b811462002e5c57600080fd5b50565b60008135905062002e708162002e45565b92915050565b60006020828403121562002e8f5762002e8e62002a59565b5b600062002e9f8482850162002e5f565b91505092915050565b600081519050919050565b600082825260208201905092915050565b6000819050602082019050919050565b600082825260208201905092915050565b600062002ef28262002c16565b62002efe818562002ed4565b935062002f1081856020860162002c32565b62002f1b8162002a6d565b840191505092915050565b600062002f34838362002ee5565b905092915050565b6000602082019050919050565b600062002f568262002ea8565b62002f62818562002eb3565b93508360208202850162002f768562002ec4565b8060005b8581101562002fb8578484038952815162002f96858262002f26565b945062002fa38362002f3c565b925060208a0199505060018101905062002f7a565b50829750879550505050505092915050565b6000602082019050818103600083015262002fe6818462002f49565b905092915050565b7f4e487b7100000000000000000000000000000000000000000000000000000000600052602160045260246000fd5b6002811062003031576200303062002fee565b5b50565b600081905062003044826200301d565b919050565b6000620030568262003034565b9050919050565b620030688162003049565b82525050565b60006020820190506200308560008301846200305d565b92915050565b60008115159050919050565b620030a2816200308b565b82525050565b600060c082019050620030bf600083018962002d92565b620030ce602083018862002d92565b620030dd604083018762002d92565b620030ec606083018662003097565b620030fb608083018562002d30565b6200310a60a083018462002d30565b979650505050505050565b6003811062003129576200312862002fee565b5b50565b60008190506200313c8262003115565b919050565b60006200314e826200312c565b9050919050565b620031608162003141565b82525050565b6000610120820190506200317e600083018c62002d30565b818103602083015262003192818b62002c5e565b90508181036040830152620031a8818a62002c5e565b90508181036060830152620031be818962002c5e565b90508181036080830152620031d4818862002c5e565b9050620031e560a083018762002d30565b620031f460c083018662002d30565b6200320360e083018562002d30565b6200321361010083018462003155565b9a9950505050505050505050565b600080600080600080600060e0888a03121562003243576200324262002a59565b5b600088013567ffffffffffffffff81111562003264576200326362002a5e565b5b620032728a828b0162002b92565b975050602088013567ffffffffffffffff81111562003296576200329562002a5e565b5b620032a48a828b0162002b92565b965050604088013567ffffffffffffffff811115620032c857620032c762002a5e565b5b620032d68a828b0162002b92565b955050606088013567ffffffffffffffff811115620032fa57620032f962002a5e565b5b620033088a828b0162002b92565b94505060806200331b8a828b0162002ce7565b93505060a06200332e8a828b0162002ce7565b92505060c088013567ffffffffffffffff81111562003352576200335162002a5e565b5b620033608a828b0162002b92565b91505092959891949750929550565b600060608201905062003386600083018662002d92565b62003395602083018562002d30565b620033a4604083018462002d30565b949350505050565b6000819050919050565b620033c181620033ac565b8114620033cd57600080fd5b50565b600081359050620033e181620033b6565b92915050565b6000806040838503121562003401576200340062002a59565b5b6000620034118582860162002ce7565b92505060206200342485828601620033d0565b9150509250929050565b600060208201905062003445600083018462003097565b92915050565b6200345681620033ac565b82525050565b60006020820190506200347360008301846200344b565b92915050565b60008060006060848603121562003495576200349462002a59565b5b6000620034a58682870162002ce7565b935050602084013567ffffffffffffffff811115620034c957620034c862002a5e565b5b620034d78682870162002b92565b925050604084013567ffffffffffffffff811115620034fb57620034fa62002a5e565b5b620035098682870162002b92565b9150509250925092565b600081905092915050565b60006200352b8262002c16565b62003537818562003513565b93506200354981856020860162002c32565b80840191505092915050565b60006200356382846200351e565b915081905092915050565b7f4e487b7100000000000000000000000000000000000000000000000000000000600052602260045260246000fd5b60006002820490506001821680620035b657607f821691505b602082108103620035cc57620035cb6200356e565b5b50919050565b60006040820190508181036000830152620035ee818562002c5e565b9050620035ff60208301846200305d565b9392505050565b7f496d6167652049442063616e6e6f7420626520656d7074790000000000000000600082015250565b60006200363e60188362002c21565b91506200364b8262003606565b602082019050919050565b6000602082019050818103600083015262003671816200362f565b9050919050565b7f4e616d652063616e6e6f7420626520656d707479000000000000000000000000600082015250565b6000620036b060148362002c21565b9150620036bd8262003678565b602082019050919050565b60006020820190508181036000830152620036e381620036a1565b9050919050565b7f417373657420616c726561647920657869737473000000000000000000000000600082015250565b60006200372260148362002c21565b91506200372f82620036ea565b602082019050919050565b60006020820190508181036000830152620037558162003713565b9050919050565b60008190508160005260206000209050919050565b60006020601f8301049050919050565b600082821b905092915050565b600060088302620037c07fffffffffffffffffffffffffffffffffffffffffffffffffffffffffffffffff8262003781565b620037cc868362003781565b95508019841693508086168417925050509392505050565b6000819050919050565b60006200380f62003809620038038462002cc3565b620037e4565b62002cc3565b9050919050565b6000819050919050565b6200382b83620037ee565b620038436200383a8262003816565b8484546200378e565b825550505050565b600090565b6200385a6200384b565b6200386781848462003820565b505050565b5b818110156200388f576200388360008262003850565b6001810190506200386d565b5050565b601f821115620038de57620038a8816200375c565b620038b38462003771565b81016020851015620038c3578190505b620038db620038d28562003771565b8301826200386c565b50505b505050565b600082821c905092915050565b60006200390360001984600802620038e3565b1980831691505092915050565b60006200391e8383620038f0565b9150826002028217905092915050565b620039398262002c16565b67ffffffffffffffff81111562003955576200395462002a7e565b5b6200396182546200359d565b6200396e82828562003893565b600060209050601f831160018114620039a6576000841562003991578287015190505b6200399d858262003910565b86555062003a0d565b601f198416620039b6866200375c565b60005b82811015620039e057848901518255600182019150602085019450602081019050620039b9565b8683101562003a005784890151620039fc601f891682620038f0565b8355505b6001600288020188555050505b505050505050565b6000606082019050818103600083015262003a31818662002c5e565b9050818103602083015262003a47818562002c5e565b905062003a58604083018462002d30565b949350505050565b60008151905062003a718162002e45565b92915050565b62003a82816200308b565b811462003a8e57600080fd5b50565b60008151905062003aa28162003a77565b92915050565b60008151905062003ab98162002ccd565b92915050565b60008060008060008060c0878903121562003adf5762003ade62002a59565b5b600062003aef89828a0162003a60565b965050602062003b0289828a0162003a60565b955050604062003b1589828a0162003a60565b945050606062003b2889828a0162003a91565b935050608062003b3b89828a0162003aa8565b92505060a062003b4e89828a0162003aa8565b9150509295509295509295565b7f4e487b7100000000000000000000000000000000000000000000000000000000600052601160045260246000fd5b600062003b978262002cc3565b915062003ba48362002cc3565b925082820190508082111562003bbf5762003bbe62003b5b565b5b92915050565b60006101008201905062003bdd600083018b62002d30565b818103602083015262003bf1818a62002c5e565b9050818103604083015262003c07818962002c5e565b9050818103606083015262003c1d818862002c5e565b9050818103608083015262003c33818762002c5e565b905062003c4460a083018662002d30565b62003c5360c083018562002d30565b62003c6260e083018462002d30565b9998505050505050505050565b7f4261642054696d65000000000000000000000000000000000000000000000000600082015250565b600062003ca760088362002c21565b915062003cb48262003c6f565b602082019050919050565b6000602082019050818103600083015262003cda8162003c98565b9050919050565b7f4261642053746174757300000000000000000000000000000000000000000000600082015250565b600062003d19600a8362002c21565b915062003d268262003ce1565b602082019050919050565b6000602082019050818103600083015262003d4c8162003d0a565b9050919050565b7f4261642068696768657374426964646572000000000000000000000000000000600082015250565b600062003d8b60118362002c21565b915062003d988262003d53565b602082019050919050565b6000602082019050818103600083015262003dbe8162003d7c565b9050919050565b7f4261642070726f647563744964496e53746f72655b5f70726f6475637449645d600082015250565b600062003dfd60208362002c21565b915062003e0a8262003dc5565b602082019050919050565b6000602082019050818103600083015262003e308162003dee565b9050919050565b600060808201905062003e4e600083018762002d30565b62003e5d602083018662002d92565b62003e6c604083018562002d92565b62003e7b606083018462002d92565b95945050505050565b600062003e918262002cc3565b915062003e9e8362002cc3565b925082820390508181111562003eb95762003eb862003b5b565b5b92915050565b7f3e00000000000000000000000000000000000000000000000000000000000000600082015250565b600062003ef760018362002c21565b915062003f048262003ebf565b602082019050919050565b6000602082019050818103600083015262003f2a8162003ee8565b9050919050565b7f3c00000000000000000000000000000000000000000000000000000000000000600082015250565b600062003f6960018362002c21565b915062003f768262003f31565b602082019050919050565b6000602082019050818103600083015262003f9c8162003f5a565b9050919050565b7f3d00000000000000000000000000000000000000000000000000000000000000600082015250565b600062003fdb60018362002c21565b915062003fe88262003fa3565b602082019050919050565b600060208201905081810360008301526200400e8162003fcc565b9050919050565b7f3d3d000000000000000000000000000000000000000000000000000000000000600082015250565b60006200404d60028362002c21565b91506200405a8262004015565b602082019050919050565b6000602082019050818103600083015262004080816200403e565b9050919050565b60006040820190508181036000830152620040a3818562002c5e565b90508181036020830152620040b9818462002c5e565b90509392505050565b7f4e487b7100000000000000000000000000000000000000000000000000000000600052603260045260246000fd5b600060ff82169050919050565b60006200410b82620040f1565b91506200411883620040f1565b9250828203905060ff81111562004134576200413362003b5b565b5b92915050565b6000620041478262002cc3565b9150620041548362002cc3565b9250828202620041648162002cc3565b915082820484148315176200417e576200417d62003b5b565b5b5092915050565b6000620041928262002cc3565b91507fffffffffffffffffffffffffffffffffffffffffffffffffffffffffffffffff8203620041c757620041c662003b5b565b5b600182019050919050565b7f4e6577206f776e65722063616e6e6f74206265207a65726f2061646472657373600082015250565b60006200420a60208362002c21565b91506200421782620041d2565b602082019050919050565b600060208201905081810360008301526200423d81620041fb565b9050919050565b7f546865206f6c64206f776e6572206973206e6f7420746865206f776e6572206f60008201527f6620746865206173736574000000000000000000000000000000000000000000602082015250565b6000620042a2602b8362002c21565b9150620042af8262004244565b604082019050919050565b60006020820190508181036000830152620042d58162004293565b9050919050565b600081905092915050565b60008190508160005260206000209050919050565b600081546200430b816200359d565b620043178186620042dc565b945060018216600081146200433557600181146200434b5762004382565b60ff198316865281151582028601935062004382565b6200435685620042e7565b60005b838110156200437a5781548189015260018201915060208101905062004359565b838801955050505b50505092915050565b6000620043998284620042fc565b915081905092915050565b600081549050620043b5816200359d565b9050919050565b60008190508160005260206000209050919050565b818103620043e1575050620044d0565b620043ec82620043a4565b67ffffffffffffffff81111562004408576200440762002a7e565b5b6200441482546200359d565b6200442182828562003893565b6000601f83116001811462004455576000841562004440578287015490505b6200444c858262003910565b865550620044c9565b601f1984166200446587620043bc565b965062004472866200375c565b60005b828110156200449c5784890154825560018201915060018501945060208101905062004475565b86831015620044bc5784890154620044b8601f891682620038f0565b8355505b6001600288020188555050505b5050505050505b565b7f4e487b7100000000000000000000000000000000000000000000000000000000600052603160045260246000fdfe608060405260405162000fcc38038062000fcc833981810160405281019062000029919062000203565b8360008190555082600160006101000a81548173ffffffffffffffffffffffffffffffffffffffff021916908373ffffffffffffffffffffffffffffffffffffffff16021790555081600260006101000a81548173ffffffffffffffffffffffffffffffffffffffff021916908373ffffffffffffffffffffffffffffffffffffffff16021790555080600360006101000a81548173ffffffffffffffffffffffffffffffffffffffff021916908373ffffffffffffffffffffffffffffffffffffffff160217905550346004819055506000600560006101000a81548160ff0219169083151502179055507f7527d0b8d16913563c5afb8fa2dc5b6257355ff7dfbefbdcfc1cf812a0f97c5e848484846040516200014c949392919062000297565b60405180910390a150505050620002e4565b600080fd5b6000819050919050565b620001788162000163565b81146200018457600080fd5b50565b60008151905062000198816200016d565b92915050565b600073ffffffffffffffffffffffffffffffffffffffff82169050919050565b6000620001cb826200019e565b9050919050565b620001dd81620001be565b8114620001e957600080fd5b50565b600081519050620001fd81620001d2565b92915050565b6000806000806080858703121562000220576200021f6200015e565b5b6000620002308782880162000187565b94505060206200024387828801620001ec565b93505060406200025687828801620001ec565b92505060606200026987828801620001ec565b91505092959194509250565b620002808162000163565b82525050565b6200029181620001be565b82525050565b6000608082019050620002ae600083018762000275565b620002bd602083018662000286565b620002cc604083018562000286565b620002db606083018462000286565b95945050505050565b610cd880620002f46000396000f3fe608060405234801561001057600080fd5b50600436106100a95760003560e01c8063aa8c217c11610071578063aa8c217c14610140578063b8d08db21461015e578063c5ce39111461017c578063d1a52e301461019a578063f3d25904146101b8578063fe25e00a146101db576100a9565b806308551a53146100ae5780630bda4dbf146100cc57806358aad10b146100ea5780637150d8ae14610106578063a97d1b1014610124575b600080fd5b6100b66101f9565b6040516100c391906109a3565b60405180910390f35b6100d461021f565b6040516100e191906109d7565b60405180910390f35b61010460048036038101906100ff9190610a23565b610225565b005b61010e61053d565b60405161011b91906109a3565b60405180910390f35b61013e60048036038101906101399190610a23565b610563565b005b61014861087b565b60405161015591906109d7565b60405180910390f35b610166610881565b60405161017391906109d7565b60405180910390f35b610184610887565b60405161019191906109d7565b60405180910390f35b6101a261088d565b6040516101af9190610a6b565b60405180910390f35b6101c06108a0565b6040516101d296959493929190610a86565b60405180910390f35b6101e361093c565b6040516101f091906109a3565b60405180910390f35b600260009054906101000a900473ffffffffffffffffffffffffffffffffffffffff1681565b60095481565b600560009054906101000a900460ff161561023f57600080fd5b600160009054906101000a900473ffffffffffffffffffffffffffffffffffffffff1673ffffffffffffffffffffffffffffffffffffffff168173ffffffffffffffffffffffffffffffffffffffff1614806102e85750600260009054906101000a900473ffffffffffffffffffffffffffffffffffffffff1673ffffffffffffffffffffffffffffffffffffffff168173ffffffffffffffffffffffffffffffffffffffff16145b806103405750600360009054906101000a900473ffffffffffffffffffffffffffffffffffffffff1673ffffffffffffffffffffffffffffffffffffffff168173ffffffffffffffffffffffffffffffffffffffff16145b61034957600080fd5b600660008273ffffffffffffffffffffffffffffffffffffffff1673ffffffffffffffffffffffffffffffffffffffff16815260200190815260200160002060009054906101000a900460ff16610448576001600660008373ffffffffffffffffffffffffffffffffffffffff1673ffffffffffffffffffffffffffffffffffffffff16815260200190815260200160002060006101000a81548160ff0219169083151502179055506001600760008282546104059190610b16565b925050819055507fe31e37941fee7dca6bb1597da71841499d8cd0dfc5553e0889f6d1ca6038ce966000548260405161043f929190610ba7565b60405180910390a15b60026007540361053a57600260009054906101000a900473ffffffffffffffffffffffffffffffffffffffff1673ffffffffffffffffffffffffffffffffffffffff166108fc6004549081150290604051600060405180830381858888f193505050501580156104bc573d6000803e3d6000fd5b506001600560006101000a81548160ff0219169083151502179055507fdde1058856b8611b1f49ef2ebaef10c0441e48e8a6cbbec1ebdcbfb1862b57b4600054600454600260009054906101000a900473ffffffffffffffffffffffffffffffffffffffff1660405161053193929190610be3565b60405180910390a15b50565b600160009054906101000a900473ffffffffffffffffffffffffffffffffffffffff1681565b600560009054906101000a900460ff161561057d57600080fd5b600160009054906101000a900473ffffffffffffffffffffffffffffffffffffffff1673ffffffffffffffffffffffffffffffffffffffff168173ffffffffffffffffffffffffffffffffffffffff1614806106265750600260009054906101000a900473ffffffffffffffffffffffffffffffffffffffff1673ffffffffffffffffffffffffffffffffffffffff168173ffffffffffffffffffffffffffffffffffffffff16145b8061067e5750600360009054906101000a900473ffffffffffffffffffffffffffffffffffffffff1673ffffffffffffffffffffffffffffffffffffffff168173ffffffffffffffffffffffffffffffffffffffff16145b61068757600080fd5b600860008273ffffffffffffffffffffffffffffffffffffffff1673ffffffffffffffffffffffffffffffffffffffff16815260200190815260200160002060009054906101000a900460ff16610786576001600860008373ffffffffffffffffffffffffffffffffffffffff1673ffffffffffffffffffffffffffffffffffffffff16815260200190815260200160002060006101000a81548160ff0219169083151502179055506001600960008282546107439190610b16565b925050819055507fe31e37941fee7dca6bb1597da71841499d8cd0dfc5553e0889f6d1ca6038ce966000548260405161077d929190610c66565b60405180910390a15b60026009540361087857600160009054906101000a900473ffffffffffffffffffffffffffffffffffffffff1673ffffffffffffffffffffffffffffffffffffffff166108fc6004549081150290604051600060405180830381858888f193505050501580156107fa573d6000803e3d6000fd5b506001600560006101000a81548160ff0219169083151502179055507fdde1058856b8611b1f49ef2ebaef10c0441e48e8a6cbbec1ebdcbfb1862b57b4600054600454600160009054906101000a900473ffffffffffffffffffffffffffffffffffffffff1660405161086f93929190610be3565b60405180910390a15b50565b60045481565b60075481565b60005481565b600560009054906101000a900460ff1681565b600080600080600080600160009054906101000a900473ffffffffffffffffffffffffffffffffffffffff16600260009054906101000a900473ffffffffffffffffffffffffffffffffffffffff16600360009054906101000a900473ffffffffffffffffffffffffffffffffffffffff16600560009054906101000a900460ff16600754600954955095509550955095509550909192939495565b600360009054906101000a900473ffffffffffffffffffffffffffffffffffffffff1681565b600073ffffffffffffffffffffffffffffffffffffffff82169050919050565b600061098d82610962565b9050919050565b61099d81610982565b82525050565b60006020820190506109b86000830184610994565b92915050565b6000819050919050565b6109d1816109be565b82525050565b60006020820190506109ec60008301846109c8565b92915050565b600080fd5b610a0081610982565b8114610a0b57600080fd5b50565b600081359050610a1d816109f7565b92915050565b600060208284031215610a3957610a386109f2565b5b6000610a4784828501610a0e565b91505092915050565b60008115159050919050565b610a6581610a50565b82525050565b6000602082019050610a806000830184610a5c565b92915050565b600060c082019050610a9b6000830189610994565b610aa86020830188610994565b610ab56040830187610994565b610ac26060830186610a5c565b610acf60808301856109c8565b610adc60a08301846109c8565b979650505050505050565b7f4e487b7100000000000000000000000000000000000000000000000000000000600052601160045260246000fd5b6000610b21826109be565b9150610b2c836109be565b9250828201905080821115610b4457610b43610ae7565b5b92915050565b600082825260208201905092915050565b7f72656c6561736500000000000000000000000000000000000000000000000000600082015250565b6000610b91600783610b4a565b9150610b9c82610b5b565b602082019050919050565b6000606082019050610bbc60008301856109c8565b8181036020830152610bcd81610b84565b9050610bdc6040830184610994565b9392505050565b6000606082019050610bf860008301866109c8565b610c0560208301856109c8565b610c126040830184610994565b949350505050565b7f726566756e640000000000000000000000000000000000000000000000000000600082015250565b6000610c50600683610b4a565b9150610c5b82610c1a565b602082019050919050565b6000606082019050610c7b60008301856109c8565b8181036020830152610c8c81610c43565b9050610c9b6040830184610994565b939250505056fea2646970667358221220414ad0c76d2e8b033deab48f940b512ccc3ec580d19f5e8f930d68516c63009464736f6c63430008110033a26469706673582212205543b291269c62390a60622bbdfde538e90d4aa750d5c660385d213502772b0064736f6c63430008110033",
  "immutableReferences": {},
  "source": "// SPDX-License-Identifier: MIT\npragma solidity ^0.8.17;\n\nimport \"../contracts/Escrow.sol\";\nimport \"../contracts/AssetManager.sol\";\n\ncontract EcommerceStore  is AssetManager{\n    // \n    enum ProductStatus {\n        Open,\n        Sold,\n        Unsold\n    }\n\n    // \n    uint256 public productIndex;\n    // \n    mapping(address => mapping(uint256 => Product)) stores;\n    // ID\n    mapping(uint256 => address) productIdInStore;\n\n    mapping(uint256 => address) productEscrow;\n\n    // \n    struct Product {\n        // ID\n        uint256 id;\n        // IPFS\n        string imageId;\n        // \n        string name;\n        // \n        string category;\n        // \n        string descLink;\n        // \n        uint256 auctionStartTime;\n        // \n        uint256 auctionEndTime;\n        // \n        uint256 startPrice;\n        // \n        address highestBidder;\n        // \n        uint256 highestBid;\n        // \n        uint256 secondHighestBid;\n        // \n        uint256 totalBids;\n        // Pro\n        ProductStatus status;\n        // \n        mapping(address => mapping(bytes32 => Bid)) bids;\n    }\n\n    // \n    struct Bid {\n        address bidder;\n        uint256 productId;\n        uint256 value;\n        bool revealed;\n    }\n\n\t// \n    event NewProduct(\n        uint256 _productId,\n        string _name,\n        string _category,\n        string _imageId,\n        string _descLink,\n        uint256 _auctionStartTime,\n        uint256 _auctionEndTime,\n        uint256 _startPrice\n    );\n    \n    // \n    function store(uint256 index_) public {\n        productIndex = index_;\n    }\n\n    //\n    function addProductToStore(\n        string memory _name,\n        string memory _category,\n        string memory _imageId,\n        string memory _descLink,\n        uint256 _auctionStartTime,\n        uint256 _auctionEndTime,\n        string memory _startPrice\n    ) public {\n        require(_auctionStartTime < _auctionEndTime);\n        productIndex += 1;\n        // msg.sender\n        Product storage product = stores[msg.sender][productIndex];\n        product.id = productIndex;\n        product.name = _name;\n        product.category = _category;\n        product.imageId = _imageId;\n        product.descLink = _descLink;\n        product.auctionStartTime = _auctionStartTime;\n        product.auctionEndTime = _auctionEndTime;\n        product.startPrice = stringToUint(_startPrice);\n        product.status = ProductStatus.Open;\n        setAssetSelling(_imageId);\n\n        // ID\n        productIdInStore[productIndex] = msg.sender;\n\t\temit NewProduct(productIndex, _name, _category, _imageId, _descLink, _auctionStartTime, _auctionEndTime, stringToUint(_startPrice));\n    }\n\n    // \n    function getProduct(uint256 _productId)\n        public\n        view\n        returns (\n            uint256,\n            string memory,\n            string memory,\n            string memory,\n            string memory,\n            uint256,\n            uint256,\n            uint256,\n            ProductStatus\n        )\n    {\n        Product storage product = stores[productIdInStore[_productId]][\n            _productId\n        ];\n        return (\n            product.id,\n            product.name,\n            product.category,\n            product.imageId,\n            product.descLink,\n            product.auctionStartTime,\n            product.auctionEndTime,\n            product.startPrice,\n            product.status\n        );\n    }\n\n    // \n    function bid(uint256 _productId, bytes32 _bid)\n        public\n        payable\n        returns (bool)\n    {\n        Product storage product = stores[productIdInStore[_productId]][\n            _productId\n        ];\n        require(block.timestamp >= product.auctionStartTime, \">\");\n        require(block.timestamp <= product.auctionEndTime, \"<\");\n        require(msg.value >= product.startPrice, \"=\");\n        require(\n            product.bids[msg.sender][_bid].bidder == address(0),\n            \"==\"\n        );\n        product.bids[msg.sender][_bid] = Bid(\n            msg.sender,\n            _productId,\n            msg.value,\n            false\n        );\n        product.totalBids += 1;\n        return true;\n    }\n\n    // \n    function revealBid(\n        uint256 _productId,\n        string memory _amount,\n        string memory _secret\n    ) public {\n        Product storage product = stores[productIdInStore[_productId]][\n            _productId\n        ];\n        require(block.timestamp > product.auctionStartTime);\n        // keccak256\n        bytes32 sealedBid = keccak256(abi.encode(_amount, _secret));\n        Bid memory bidInfo = product.bids[msg.sender][sealedBid];\n        require(bidInfo.bidder > address(0));\n        require(bidInfo.revealed == false);\n        // \n        uint256 refund;\n        // \n        uint256 amount = stringToUint(_amount);\n\n        uint256 bidInfov = bidInfo.value;\n        // \n        if (bidInfov < amount) {\n            refund = bidInfov;\n        } else {\n            // \n            if (\n                address(product.highestBidder) == address(0)\n            ) {\n                product.highestBidder = msg.sender;\n                product.highestBid = amount;\n                product.secondHighestBid = product.startPrice;\n                refund = bidInfov - amount;\n            } else {\n                // \n                if (amount > product.highestBid) {\n                    product.secondHighestBid = product.highestBid;\n                    payable(product.highestBidder).transfer(product.highestBid);\n                    product.highestBidder = msg.sender;\n                    product.highestBid = amount;\n                    refund = bidInfov - amount;\n                } else if (amount > product.secondHighestBid) {\n                    // \n                    product.secondHighestBid = amount;\n                    refund = amount;\n                } else {\n                    // \n                    refund = amount;\n                }\n            }\n        }\n        // \n        product.bids[msg.sender][sealedBid].revealed = true;\n\n        if (refund > 0) {\n            payable(msg.sender).transfer(refund);\n        }\n    }\n\n    // \n    function highestBidderInfo(uint256 _productId)\n        public\n        view\n        returns (\n            address,\n            uint256,\n            uint256\n        )\n    {\n        Product storage product = stores[productIdInStore[_productId]][\n            _productId\n        ];\n        return (\n            product.highestBidder,\n            product.highestBid,\n            product.secondHighestBid\n        );\n    }\n\n    // \n    function totalBids(uint256 _productId) public view returns (uint256) {\n        Product storage product = stores[productIdInStore[_productId]][\n            _productId\n        ];\n        return product.totalBids;\n    }\n\n    // \n    function stringToUint(string memory s) private pure returns (uint256) {\n        bytes memory b = bytes(s);\n        uint256 result = 0;\n        for (uint256 i = 0; i < b.length; i++) {\n            if (uint8(b[i]) >= 48 && uint8(b[i]) <= 57) {\n                result = result * 10 + (uint8(b[i]) - 48);\n            }\n        }\n        return result;\n    }\n\n    function finalizeAuction(uint256 _productId) public {\n        Product storage product = stores[productIdInStore[_productId]][\n            _productId\n        ];\n        // 48 hours to reveal the bid\n        require(block.timestamp > product.auctionEndTime, \"Bad Time\");\n        require(product.status == ProductStatus.Open, \"Bad Status\");\n        require(product.highestBidder != msg.sender, \"Bad highestBidder\");\n        require(productIdInStore[_productId] != msg.sender, \"Bad productIdInStore[_productId]\");\n\n        if (\n            product.highestBidder == address(0)\n        ) {\n            product.status = ProductStatus.Unsold;\n            setAssetNotSelling(product.imageId);\n        } else {\n            // Whoever finalizes the auction is the arbiter\n            Escrow escrow = (new Escrow){value: product.secondHighestBid}(\n                _productId,\n                product.highestBidder,\n                productIdInStore[_productId],\n                msg.sender\n            );\n            productEscrow[_productId] = address(escrow);\n            product.status = ProductStatus.Sold;\n            setAssetNotSelling(product.imageId);\n            // The bidder only pays the amount equivalent to second highest bidder\n            // Refund the difference\n            uint256 refund = product.highestBid - product.secondHighestBid;\n            payable(product.highestBidder).transfer(refund);\n            changeAssetOwner(product.imageId, productIdInStore[_productId], product.highestBidder);\n        }\n    }\n\n    function escrowAddressForProduct(uint256 _productId)\n        public\n        view\n        returns (address)\n    {\n        return productEscrow[_productId];\n    }\n\n    function escrowInfo(uint256 _productId)\n        public\n        view\n        returns (\n            address,\n            address,\n            address,\n            bool,\n            uint256,\n            uint256\n        )\n    {\n        return Escrow(productEscrow[_productId]).escrowInfo();\n    }\n\n    function releaseAmountToSeller(uint256 _productId) public {\n        Escrow(productEscrow[_productId]).releaseAmountToSeller(msg.sender);\n    }\n\n    function refundAmountToBuyer(uint256 _productId) public {\n        Escrow(productEscrow[_productId]).refundAmountToBuyer(msg.sender);\n    }\n\n    // \n    function keccak(string memory _amount, string memory _secret)\n        public\n        pure\n        returns (bytes32)\n    {\n        bytes32 _bid = keccak256(abi.encode(_amount, _secret));\n        return _bid;\n    }\n}\n",
  "sourcePath": "D:\\codes\\hku_Final\\ebay-truffle-auction\\contracts\\EcommerceStore.sol",
  "compiler": {
    "name": "solc",
    "version": "0.8.17+commit.8df45f5f.Emscripten.clang"
  },
  "schemaVersion": "3.4.11",
  "updatedAt": "2024-07-11T20:15:50.318Z",
  "networkType": "ethereum",
  "devdoc": {
    "kind": "dev",
    "methods": {},
    "version": 1
  },
  "userdoc": {
    "kind": "user",
    "methods": {},
    "version": 1
  }
}